{
  "contractName": "HappyCows",
  "abi": [
    {
      "inputs": [
        {
          "internalType": "uint256",
          "name": "_blockNumber",
          "type": "uint256"
        },
        {
          "internalType": "contract IMilkToken",
          "name": "_tokenMilk",
          "type": "address"
        },
        {
          "internalType": "string",
          "name": "_baseURI",
          "type": "string"
        },
        {
          "internalType": "address",
          "name": "_ownerAddr",
          "type": "address"
        }
      ],
      "stateMutability": "nonpayable",
      "type": "constructor"
    },
    {
      "anonymous": false,
      "inputs": [
        {
          "indexed": true,
          "internalType": "address",
          "name": "owner",
          "type": "address"
        },
        {
          "indexed": true,
          "internalType": "address",
          "name": "approved",
          "type": "address"
        },
        {
          "indexed": true,
          "internalType": "uint256",
          "name": "tokenId",
          "type": "uint256"
        }
      ],
      "name": "Approval",
      "type": "event"
    },
    {
      "anonymous": false,
      "inputs": [
        {
          "indexed": true,
          "internalType": "address",
          "name": "owner",
          "type": "address"
        },
        {
          "indexed": true,
          "internalType": "address",
          "name": "operator",
          "type": "address"
        },
        {
          "indexed": false,
          "internalType": "bool",
          "name": "approved",
          "type": "bool"
        }
      ],
      "name": "ApprovalForAll",
      "type": "event"
    },
    {
      "anonymous": false,
      "inputs": [
        {
          "indexed": true,
          "internalType": "address",
          "name": "previousOwner",
          "type": "address"
        },
        {
          "indexed": true,
          "internalType": "address",
          "name": "newOwner",
          "type": "address"
        }
      ],
      "name": "OwnershipTransferred",
      "type": "event"
    },
    {
      "anonymous": false,
      "inputs": [
        {
          "indexed": true,
          "internalType": "address",
          "name": "from",
          "type": "address"
        },
        {
          "indexed": true,
          "internalType": "address",
          "name": "to",
          "type": "address"
        },
        {
          "indexed": true,
          "internalType": "uint256",
          "name": "tokenId",
          "type": "uint256"
        }
      ],
      "name": "Transfer",
      "type": "event"
    },
    {
      "inputs": [
        {
          "internalType": "address",
          "name": "to",
          "type": "address"
        },
        {
          "internalType": "uint256",
          "name": "tokenId",
          "type": "uint256"
        }
      ],
      "name": "approve",
      "outputs": [],
      "stateMutability": "nonpayable",
      "type": "function"
    },
    {
      "inputs": [
        {
          "internalType": "address",
          "name": "owner",
          "type": "address"
        }
      ],
      "name": "balanceOf",
      "outputs": [
        {
          "internalType": "uint256",
          "name": "",
          "type": "uint256"
        }
      ],
      "stateMutability": "view",
      "type": "function",
      "constant": true
    },
    {
      "inputs": [],
      "name": "baseURI",
      "outputs": [
        {
          "internalType": "string",
          "name": "",
          "type": "string"
        }
      ],
      "stateMutability": "view",
      "type": "function",
      "constant": true
    },
    {
      "inputs": [],
      "name": "blockNumber",
      "outputs": [
        {
          "internalType": "uint256",
          "name": "",
          "type": "uint256"
        }
      ],
      "stateMutability": "view",
      "type": "function",
      "constant": true
    },
    {
      "inputs": [
        {
          "internalType": "uint256",
          "name": "tokenId",
          "type": "uint256"
        }
      ],
      "name": "getApproved",
      "outputs": [
        {
          "internalType": "address",
          "name": "",
          "type": "address"
        }
      ],
      "stateMutability": "view",
      "type": "function",
      "constant": true
    },
    {
      "inputs": [
        {
          "internalType": "address",
          "name": "owner",
          "type": "address"
        },
        {
          "internalType": "address",
          "name": "operator",
          "type": "address"
        }
      ],
      "name": "isApprovedForAll",
      "outputs": [
        {
          "internalType": "bool",
          "name": "",
          "type": "bool"
        }
      ],
      "stateMutability": "view",
      "type": "function",
      "constant": true
    },
    {
      "inputs": [],
      "name": "name",
      "outputs": [
        {
          "internalType": "string",
          "name": "",
          "type": "string"
        }
      ],
      "stateMutability": "view",
      "type": "function",
      "constant": true
    },
    {
      "inputs": [],
      "name": "owner",
      "outputs": [
        {
          "internalType": "address",
          "name": "",
          "type": "address"
        }
      ],
      "stateMutability": "view",
      "type": "function",
      "constant": true
    },
    {
      "inputs": [
        {
          "internalType": "uint256",
          "name": "tokenId",
          "type": "uint256"
        }
      ],
      "name": "ownerOf",
      "outputs": [
        {
          "internalType": "address",
          "name": "",
          "type": "address"
        }
      ],
      "stateMutability": "view",
      "type": "function",
      "constant": true
    },
    {
      "inputs": [],
      "name": "price",
      "outputs": [
        {
          "internalType": "uint256",
          "name": "",
          "type": "uint256"
        }
      ],
      "stateMutability": "view",
      "type": "function",
      "constant": true
    },
    {
      "inputs": [],
      "name": "renounceOwnership",
      "outputs": [],
      "stateMutability": "nonpayable",
      "type": "function"
    },
    {
      "inputs": [
        {
          "internalType": "address",
          "name": "from",
          "type": "address"
        },
        {
          "internalType": "address",
          "name": "to",
          "type": "address"
        },
        {
          "internalType": "uint256",
          "name": "tokenId",
          "type": "uint256"
        }
      ],
      "name": "safeTransferFrom",
      "outputs": [],
      "stateMutability": "nonpayable",
      "type": "function"
    },
    {
      "inputs": [
        {
          "internalType": "address",
          "name": "from",
          "type": "address"
        },
        {
          "internalType": "address",
          "name": "to",
          "type": "address"
        },
        {
          "internalType": "uint256",
          "name": "tokenId",
          "type": "uint256"
        },
        {
          "internalType": "bytes",
          "name": "_data",
          "type": "bytes"
        }
      ],
      "name": "safeTransferFrom",
      "outputs": [],
      "stateMutability": "nonpayable",
      "type": "function"
    },
    {
      "inputs": [
        {
          "internalType": "address",
          "name": "operator",
          "type": "address"
        },
        {
          "internalType": "bool",
          "name": "approved",
          "type": "bool"
        }
      ],
      "name": "setApprovalForAll",
      "outputs": [],
      "stateMutability": "nonpayable",
      "type": "function"
    },
    {
      "inputs": [
        {
          "internalType": "bytes4",
          "name": "interfaceId",
          "type": "bytes4"
        }
      ],
      "name": "supportsInterface",
      "outputs": [
        {
          "internalType": "bool",
          "name": "",
          "type": "bool"
        }
      ],
      "stateMutability": "view",
      "type": "function",
      "constant": true
    },
    {
      "inputs": [],
      "name": "symbol",
      "outputs": [
        {
          "internalType": "string",
          "name": "",
          "type": "string"
        }
      ],
      "stateMutability": "view",
      "type": "function",
      "constant": true
    },
    {
      "inputs": [
        {
          "internalType": "uint256",
          "name": "tokenId",
          "type": "uint256"
        }
      ],
      "name": "tokenURI",
      "outputs": [
        {
          "internalType": "string",
          "name": "",
          "type": "string"
        }
      ],
      "stateMutability": "view",
      "type": "function",
      "constant": true
    },
    {
      "inputs": [
        {
          "internalType": "address",
          "name": "from",
          "type": "address"
        },
        {
          "internalType": "address",
          "name": "to",
          "type": "address"
        },
        {
          "internalType": "uint256",
          "name": "tokenId",
          "type": "uint256"
        }
      ],
      "name": "transferFrom",
      "outputs": [],
      "stateMutability": "nonpayable",
      "type": "function"
    },
    {
      "inputs": [
        {
          "internalType": "address",
          "name": "newOwner",
          "type": "address"
        }
      ],
      "name": "transferOwnership",
      "outputs": [],
      "stateMutability": "nonpayable",
      "type": "function"
    },
    {
      "inputs": [
        {
          "internalType": "string",
          "name": "_metaHash",
          "type": "string"
        },
        {
          "internalType": "address",
          "name": "contractAddress",
          "type": "address"
        }
      ],
      "name": "buyBlindBox",
      "outputs": [
        {
          "internalType": "uint256",
          "name": "",
          "type": "uint256"
        }
      ],
      "stateMutability": "nonpayable",
      "type": "function"
    },
    {
      "inputs": [
        {
          "internalType": "address",
          "name": "_ownerAddr",
          "type": "address"
        }
      ],
      "name": "setOwnerAddr",
      "outputs": [],
      "stateMutability": "nonpayable",
      "type": "function"
    },
    {
      "inputs": [],
      "name": "getOwnerAddr",
      "outputs": [
        {
          "internalType": "address",
          "name": "",
          "type": "address"
        }
      ],
      "stateMutability": "view",
      "type": "function",
      "constant": true
    },
    {
      "inputs": [
        {
          "internalType": "uint256",
          "name": "_price",
          "type": "uint256"
        }
      ],
      "name": "setPrice",
      "outputs": [],
      "stateMutability": "nonpayable",
      "type": "function"
    },
    {
      "inputs": [
        {
          "internalType": "uint256",
          "name": "_blockNumber",
          "type": "uint256"
        }
      ],
      "name": "setBlockNumber",
      "outputs": [],
      "stateMutability": "nonpayable",
      "type": "function"
    },
    {
      "inputs": [
        {
          "internalType": "string",
          "name": "_baseURI",
          "type": "string"
        }
      ],
      "name": "setBaseURI",
      "outputs": [],
      "stateMutability": "nonpayable",
      "type": "function"
    },
    {
      "inputs": [
        {
          "internalType": "address",
          "name": "_from",
          "type": "address"
        },
        {
          "internalType": "address",
          "name": "_to",
          "type": "address"
        },
        {
          "internalType": "uint256",
          "name": "_tokenId",
          "type": "uint256"
        }
      ],
      "name": "transfer",
      "outputs": [],
      "stateMutability": "nonpayable",
      "type": "function"
    },
    {
      "inputs": [],
      "name": "getBlockNumber",
      "outputs": [
        {
          "internalType": "uint256",
          "name": "",
          "type": "uint256"
        }
      ],
      "stateMutability": "view",
      "type": "function",
      "constant": true
    },
    {
      "inputs": [],
      "name": "totalSupply",
      "outputs": [
        {
          "internalType": "uint256",
          "name": "",
          "type": "uint256"
        }
      ],
      "stateMutability": "view",
      "type": "function",
      "constant": true
    },
    {
      "inputs": [
        {
          "internalType": "uint256",
          "name": "tokenId",
          "type": "uint256"
        }
      ],
      "name": "getTokenFullURI",
      "outputs": [
        {
          "internalType": "string",
          "name": "",
          "type": "string"
        }
      ],
      "stateMutability": "view",
      "type": "function",
      "constant": true
    },
    {
      "inputs": [],
      "name": "getBaseURI",
      "outputs": [
        {
          "internalType": "string",
          "name": "",
          "type": "string"
        }
      ],
      "stateMutability": "view",
      "type": "function",
      "constant": true
    },
    {
      "inputs": [],
      "name": "fetchMyNfts",
      "outputs": [
        {
          "internalType": "uint256[]",
          "name": "",
          "type": "uint256[]"
        }
      ],
      "stateMutability": "view",
      "type": "function",
      "constant": true
    }
  ],
  "bytecode": "0x60806040523480156200001157600080fd5b50604051620048ac380380620048ac8339818101604052810190620000379190620003f1565b6040518060400160405280600a81526020017f486170707920436f7773000000000000000000000000000000000000000000008152506040518060400160405280600381526020017f48434e0000000000000000000000000000000000000000000000000000000000815250620000d5620000c0620001be640100000000026401000000009004565b620001c6640100000000026401000000009004565b8160019080519060200190620000ed9291906200028a565b508060029080519060200190620001069291906200028a565b50505083600a8190555082600d60006101000a81548173ffffffffffffffffffffffffffffffffffffffff021916908373ffffffffffffffffffffffffffffffffffffffff16021790555081600c9080519060200190620001699291906200028a565b50612710600b8190555080600960006101000a81548173ffffffffffffffffffffffffffffffffffffffff021916908373ffffffffffffffffffffffffffffffffffffffff1602179055505050505062000686565b600033905090565b60008060009054906101000a900473ffffffffffffffffffffffffffffffffffffffff169050816000806101000a81548173ffffffffffffffffffffffffffffffffffffffff021916908373ffffffffffffffffffffffffffffffffffffffff1602179055508173ffffffffffffffffffffffffffffffffffffffff168173ffffffffffffffffffffffffffffffffffffffff167f8be0079c531659141344cd1fd0a4f28419497f9722a3daafe3b4186f6b6457e060405160405180910390a35050565b82805462000298906200055d565b90600052602060002090601f016020900481019282620002bc576000855562000308565b82601f10620002d757805160ff191683800117855562000308565b8280016001018555821562000308579182015b8281111562000307578251825591602001919060010190620002ea565b5b5090506200031791906200031b565b5090565b5b80821115620003365760008160009055506001016200031c565b5090565b6000620003516200034b846200049f565b62000476565b9050828152602081018484840111156200036a57600080fd5b6200037784828562000527565b509392505050565b600081519050620003908162000638565b92915050565b600081519050620003a78162000652565b92915050565b600082601f830112620003bf57600080fd5b8151620003d18482602086016200033a565b91505092915050565b600081519050620003eb816200066c565b92915050565b600080600080608085870312156200040857600080fd5b60006200041887828801620003da565b94505060206200042b8782880162000396565b935050604085015167ffffffffffffffff8111156200044957600080fd5b6200045787828801620003ad565b92505060606200046a878288016200037f565b91505092959194509250565b60006200048262000495565b905062000490828262000593565b919050565b6000604051905090565b600067ffffffffffffffff821115620004bd57620004bc620005f8565b5b620004c88262000627565b9050602081019050919050565b6000620004e282620004fd565b9050919050565b6000620004f682620004d5565b9050919050565b600073ffffffffffffffffffffffffffffffffffffffff82169050919050565b6000819050919050565b60005b83811015620005475780820151818401526020810190506200052a565b8381111562000557576000848401525b50505050565b600060028204905060018216806200057657607f821691505b602082108114156200058d576200058c620005c9565b5b50919050565b6200059e8262000627565b810181811067ffffffffffffffff82111715620005c057620005bf620005f8565b5b80604052505050565b7f4e487b7100000000000000000000000000000000000000000000000000000000600052602260045260246000fd5b7f4e487b7100000000000000000000000000000000000000000000000000000000600052604160045260246000fd5b6000601f19601f8301169050919050565b6200064381620004d5565b81146200064f57600080fd5b50565b6200065d81620004e9565b81146200066957600080fd5b50565b62000677816200051d565b81146200068357600080fd5b50565b61421680620006966000396000f3fe608060405234801561001057600080fd5b5060043610610202576000357c010000000000000000000000000000000000000000000000000000000090048063715018a61161012c578063a8c3c850116100bf578063e074278d1161008e578063e074278d14610589578063e6704723146105a5578063e985e9c5146105c3578063f2fde38b146105f357610202565b8063a8c3c85014610505578063b88d4fde14610521578063beabacc81461053d578063c87b56dd1461055957610202565b806391b7f5ed116100fb57806391b7f5ed1461049157806395d89b41146104ad578063a035b1fe146104cb578063a22cb465146104e957610202565b8063715018a61461040957806380e719c6146104135780638baa1025146104435780638da5cb5b1461047357610202565b806342842e0e116101a45780636352211e116101735780636352211e1461036d5780636c0360eb1461039d57806370a08231146103bb578063714c5398146103eb57610202565b806342842e0e146102f957806342cbb15c1461031557806355f804b31461033357806357e871e71461034f57610202565b8063095ea7b3116101e0578063095ea7b314610285578063128ae712146102a157806318160ddd146102bf57806323b872dd146102dd57610202565b806301ffc9a71461020757806306fdde0314610237578063081812fc14610255575b600080fd5b610221600480360381019061021c9190612d08565b61060f565b60405161022e919061339f565b60405180910390f35b61023f6106f1565b60405161024c91906133ba565b60405180910390f35b61026f600480360381019061026a9190612def565b610783565b60405161027c91906132df565b60405180910390f35b61029f600480360381019061029a9190612ca3565b610808565b005b6102a9610920565b6040516102b6919061337d565b60405180910390f35b6102c7610aed565b6040516102d491906136bc565b60405180910390f35b6102f760048036038101906102f29190612b9d565b610afe565b005b610313600480360381019061030e9190612b9d565b610b5e565b005b61031d610b7e565b60405161032a91906136bc565b60405180910390f35b61034d60048036038101906103489190612d5a565b610b86565b005b610357610c1c565b60405161036491906136bc565b60405180910390f35b61038760048036038101906103829190612def565b610c22565b60405161039491906132df565b60405180910390f35b6103a5610cd4565b6040516103b291906133ba565b60405180910390f35b6103d560048036038101906103d09190612b38565b610d62565b6040516103e291906136bc565b60405180910390f35b6103f3610e1a565b60405161040091906133ba565b60405180910390f35b610411610eb2565b005b61042d60048036038101906104289190612def565b610f3a565b60405161043a91906133ba565b60405180910390f35b61045d60048036038101906104589190612d9b565b611003565b60405161046a91906136bc565b60405180910390f35b61047b61137a565b60405161048891906132df565b60405180910390f35b6104ab60048036038101906104a69190612def565b6113a3565b005b6104b5611429565b6040516104c291906133ba565b60405180910390f35b6104d36114bb565b6040516104e091906136bc565b60405180910390f35b61050360048036038101906104fe9190612c67565b6114c1565b005b61051f600480360381019061051a9190612def565b611642565b005b61053b60048036038101906105369190612bec565b6116c8565b005b61055760048036038101906105529190612b9d565b61172a565b005b610573600480360381019061056e9190612def565b6117b6565b60405161058091906133ba565b60405180910390f35b6105a3600480360381019061059e9190612b38565b611908565b005b6105ad611a38565b6040516105ba91906132df565b60405180910390f35b6105dd60048036038101906105d89190612b61565b611ade565b6040516105ea919061339f565b60405180910390f35b61060d60048036038101906106089190612b38565b611b72565b005b60007f80ac58cd000000000000000000000000000000000000000000000000000000007bffffffffffffffffffffffffffffffffffffffffffffffffffffffff1916827bffffffffffffffffffffffffffffffffffffffffffffffffffffffff191614806106da57507f5b5e139f000000000000000000000000000000000000000000000000000000007bffffffffffffffffffffffffffffffffffffffffffffffffffffffff1916827bffffffffffffffffffffffffffffffffffffffffffffffffffffffff1916145b806106ea57506106e982611c6a565b5b9050919050565b606060018054610700906139a5565b80601f016020809104026020016040519081016040528092919081815260200182805461072c906139a5565b80156107795780601f1061074e57610100808354040283529160200191610779565b820191906000526020600020905b81548152906001019060200180831161075c57829003601f168201915b5050505050905090565b600061078e82611cd4565b6107cd576040517f08c379a00000000000000000000000000000000000000000000000000000000081526004016107c4906135fc565b60405180910390fd5b6005600083815260200190815260200160002060009054906101000a900473ffffffffffffffffffffffffffffffffffffffff169050919050565b600061081382610c22565b90508073ffffffffffffffffffffffffffffffffffffffff168373ffffffffffffffffffffffffffffffffffffffff161415610884576040517f08c379a000000000000000000000000000000000000000000000000000000000815260040161087b9061367c565b60405180910390fd5b8073ffffffffffffffffffffffffffffffffffffffff166108a3611d40565b73ffffffffffffffffffffffffffffffffffffffff1614806108d257506108d1816108cc611d40565b611ade565b5b610911576040517f08c379a0000000000000000000000000000000000000000000000000000000008152600401610908906134dc565b60405180910390fd5b61091b8383611d48565b505050565b606060008061092f6008611e01565b905060005b818110156109a6573373ffffffffffffffffffffffffffffffffffffffff1661096860018361096391906137da565b610c22565b73ffffffffffffffffffffffffffffffffffffffff16141561099357828061098f90613a08565b9350505b808061099e90613a08565b915050610934565b5060008267ffffffffffffffff8111156109e9577f4e487b7100000000000000000000000000000000000000000000000000000000600052604160045260246000fd5b604051908082528060200260200182016040528015610a175781602001602082028036833780820191505090505b5090506000805b83811015610ae2573373ffffffffffffffffffffffffffffffffffffffff16610a52600183610a4d91906137da565b610c22565b73ffffffffffffffffffffffffffffffffffffffff161415610acf57600181610a7b91906137da565b838381518110610ab4577f4e487b7100000000000000000000000000000000000000000000000000000000600052603260045260246000fd5b6020026020010181815250508180610acb90613a08565b9250505b8080610ada90613a08565b915050610a1e565b508194505050505090565b6000610af96008611e01565b905090565b610b0f610b09611d40565b82611e0f565b610b4e576040517f08c379a0000000000000000000000000000000000000000000000000000000008152600401610b459061369c565b60405180910390fd5b610b59838383611eed565b505050565b610b79838383604051806020016040528060008152506116c8565b505050565b600043905090565b610b8e611d40565b73ffffffffffffffffffffffffffffffffffffffff16610bac61137a565b73ffffffffffffffffffffffffffffffffffffffff1614610c02576040517f08c379a0000000000000000000000000000000000000000000000000000000008152600401610bf99061361c565b60405180910390fd5b80600c9080519060200190610c18929190612932565b5050565b600a5481565b6000806003600084815260200190815260200160002060009054906101000a900473ffffffffffffffffffffffffffffffffffffffff169050600073ffffffffffffffffffffffffffffffffffffffff168173ffffffffffffffffffffffffffffffffffffffff161415610ccb576040517f08c379a0000000000000000000000000000000000000000000000000000000008152600401610cc29061351c565b60405180910390fd5b80915050919050565b600c8054610ce1906139a5565b80601f0160208091040260200160405190810160405280929190818152602001828054610d0d906139a5565b8015610d5a5780601f10610d2f57610100808354040283529160200191610d5a565b820191906000526020600020905b815481529060010190602001808311610d3d57829003601f168201915b505050505081565b60008073ffffffffffffffffffffffffffffffffffffffff168273ffffffffffffffffffffffffffffffffffffffff161415610dd3576040517f08c379a0000000000000000000000000000000000000000000000000000000008152600401610dca906134fc565b60405180910390fd5b600460008373ffffffffffffffffffffffffffffffffffffffff1673ffffffffffffffffffffffffffffffffffffffff168152602001908152602001600020549050919050565b60606000600c8054610e2b906139a5565b80601f0160208091040260200160405190810160405280929190818152602001828054610e57906139a5565b8015610ea45780601f10610e7957610100808354040283529160200191610ea4565b820191906000526020600020905b815481529060010190602001808311610e8757829003601f168201915b505050505090508091505090565b610eba611d40565b73ffffffffffffffffffffffffffffffffffffffff16610ed861137a565b73ffffffffffffffffffffffffffffffffffffffff1614610f2e576040517f08c379a0000000000000000000000000000000000000000000000000000000008152600401610f259061361c565b60405180910390fd5b610f386000612149565b565b60606000600c8054610f4b906139a5565b80601f0160208091040260200160405190810160405280929190818152602001828054610f77906139a5565b8015610fc45780601f10610f9957610100808354040283529160200191610fc4565b820191906000526020600020905b815481529060010190602001808311610fa757829003601f168201915b505050505090506000610fd6846117b6565b90508181604051602001610feb9291906132bb565b60405160208183030381529060405292505050919050565b60008073ffffffffffffffffffffffffffffffffffffffff163373ffffffffffffffffffffffffffffffffffffffff161415611074576040517f08c379a000000000000000000000000000000000000000000000000000000000815260040161106b906134bc565b60405180910390fd5b600a544310156110b9576040517f08c379a00000000000000000000000000000000000000000000000000000000081526004016110b09061359c565b60405180910390fd5b6103e86110c66008611e01565b1115611107576040517f08c379a00000000000000000000000000000000000000000000000000000000081526004016110fe9061357c565b60405180910390fd5b670de0b6b3a7640000600b5461111d9190613861565b600d60009054906101000a900473ffffffffffffffffffffffffffffffffffffffff1673ffffffffffffffffffffffffffffffffffffffff166370a08231336040518263ffffffff167c010000000000000000000000000000000000000000000000000000000002815260040161119491906132df565b60206040518083038186803b1580156111ac57600080fd5b505afa1580156111c0573d6000803e3d6000fd5b505050506040513d601f19601f820116820180604052508101906111e49190612e18565b1015611225576040517f08c379a000000000000000000000000000000000000000000000000000000000815260040161121c9061341c565b60405180910390fd5b600d60009054906101000a900473ffffffffffffffffffffffffffffffffffffffff1673ffffffffffffffffffffffffffffffffffffffff166323b872dd33600960009054906101000a900473ffffffffffffffffffffffffffffffffffffffff16670de0b6b3a7640000600b5461129d9190613861565b6040518463ffffffff167c01000000000000000000000000000000000000000000000000000000000281526004016112d7939291906132fa565b602060405180830381600087803b1580156112f157600080fd5b505af1158015611305573d6000803e3d6000fd5b505050506040513d601f19601f820116820180604052508101906113299190612cdf565b50611334600861220d565b60006113406008611e01565b905061134c3382612223565b61135681856123f1565b6113603384611ade565b6113705761136f8360016114c1565b5b8091505092915050565b60008060009054906101000a900473ffffffffffffffffffffffffffffffffffffffff16905090565b6113ab611d40565b73ffffffffffffffffffffffffffffffffffffffff166113c961137a565b73ffffffffffffffffffffffffffffffffffffffff161461141f576040517f08c379a00000000000000000000000000000000000000000000000000000000081526004016114169061361c565b60405180910390fd5b80600b8190555050565b606060028054611438906139a5565b80601f0160208091040260200160405190810160405280929190818152602001828054611464906139a5565b80156114b15780601f10611486576101008083540402835291602001916114b1565b820191906000526020600020905b81548152906001019060200180831161149457829003601f168201915b5050505050905090565b600b5481565b6114c9611d40565b73ffffffffffffffffffffffffffffffffffffffff168273ffffffffffffffffffffffffffffffffffffffff161415611537576040517f08c379a000000000000000000000000000000000000000000000000000000000815260040161152e9061347c565b60405180910390fd5b8060066000611544611d40565b73ffffffffffffffffffffffffffffffffffffffff1673ffffffffffffffffffffffffffffffffffffffff16815260200190815260200160002060008473ffffffffffffffffffffffffffffffffffffffff1673ffffffffffffffffffffffffffffffffffffffff16815260200190815260200160002060006101000a81548160ff0219169083151502179055508173ffffffffffffffffffffffffffffffffffffffff166115f1611d40565b73ffffffffffffffffffffffffffffffffffffffff167f17307eab39ab6107e8899845ad3d59bd9653f200f220920489ca2b5937696c3183604051611636919061339f565b60405180910390a35050565b61164a611d40565b73ffffffffffffffffffffffffffffffffffffffff1661166861137a565b73ffffffffffffffffffffffffffffffffffffffff16146116be576040517f08c379a00000000000000000000000000000000000000000000000000000000081526004016116b59061361c565b60405180910390fd5b80600a8190555050565b6116d96116d3611d40565b83611e0f565b611718576040517f08c379a000000000000000000000000000000000000000000000000000000000815260040161170f9061369c565b60405180910390fd5b61172484848484612465565b50505050565b611732611d40565b73ffffffffffffffffffffffffffffffffffffffff1661175061137a565b73ffffffffffffffffffffffffffffffffffffffff16146117a6576040517f08c379a000000000000000000000000000000000000000000000000000000000815260040161179d9061361c565b60405180910390fd5b6117b1838383610afe565b505050565b60606117c182611cd4565b611800576040517f08c379a00000000000000000000000000000000000000000000000000000000081526004016117f7906135dc565b60405180910390fd5b6000600760008481526020019081526020016000208054611820906139a5565b80601f016020809104026020016040519081016040528092919081815260200182805461184c906139a5565b80156118995780601f1061186e57610100808354040283529160200191611899565b820191906000526020600020905b81548152906001019060200180831161187c57829003601f168201915b5050505050905060006118aa6124c1565b90506000815114156118c0578192505050611903565b6000825111156118f55780826040516020016118dd9291906132bb565b60405160208183030381529060405292505050611903565b6118fe846124d8565b925050505b919050565b611910611d40565b73ffffffffffffffffffffffffffffffffffffffff1661192e61137a565b73ffffffffffffffffffffffffffffffffffffffff1614611984576040517f08c379a000000000000000000000000000000000000000000000000000000000815260040161197b9061361c565b60405180910390fd5b600073ffffffffffffffffffffffffffffffffffffffff168173ffffffffffffffffffffffffffffffffffffffff1614156119f4576040517f08c379a00000000000000000000000000000000000000000000000000000000081526004016119eb9061353c565b60405180910390fd5b80600960006101000a81548173ffffffffffffffffffffffffffffffffffffffff021916908373ffffffffffffffffffffffffffffffffffffffff16021790555050565b6000611a42611d40565b73ffffffffffffffffffffffffffffffffffffffff16611a6061137a565b73ffffffffffffffffffffffffffffffffffffffff1614611ab6576040517f08c379a0000000000000000000000000000000000000000000000000000000008152600401611aad9061361c565b60405180910390fd5b600960009054906101000a900473ffffffffffffffffffffffffffffffffffffffff16905090565b6000600660008473ffffffffffffffffffffffffffffffffffffffff1673ffffffffffffffffffffffffffffffffffffffff16815260200190815260200160002060008373ffffffffffffffffffffffffffffffffffffffff1673ffffffffffffffffffffffffffffffffffffffff16815260200190815260200160002060009054906101000a900460ff16905092915050565b611b7a611d40565b73ffffffffffffffffffffffffffffffffffffffff16611b9861137a565b73ffffffffffffffffffffffffffffffffffffffff1614611bee576040517f08c379a0000000000000000000000000000000000000000000000000000000008152600401611be59061361c565b60405180910390fd5b600073ffffffffffffffffffffffffffffffffffffffff168173ffffffffffffffffffffffffffffffffffffffff161415611c5e576040517f08c379a0000000000000000000000000000000000000000000000000000000008152600401611c55906133fc565b60405180910390fd5b611c6781612149565b50565b60007f01ffc9a7000000000000000000000000000000000000000000000000000000007bffffffffffffffffffffffffffffffffffffffffffffffffffffffff1916827bffffffffffffffffffffffffffffffffffffffffffffffffffffffff1916149050919050565b60008073ffffffffffffffffffffffffffffffffffffffff166003600084815260200190815260200160002060009054906101000a900473ffffffffffffffffffffffffffffffffffffffff1673ffffffffffffffffffffffffffffffffffffffff1614159050919050565b600033905090565b816005600083815260200190815260200160002060006101000a81548173ffffffffffffffffffffffffffffffffffffffff021916908373ffffffffffffffffffffffffffffffffffffffff160217905550808273ffffffffffffffffffffffffffffffffffffffff16611dbb83610c22565b73ffffffffffffffffffffffffffffffffffffffff167f8c5be1e5ebec7d5bd14f71427d1e84f3dd0314c0f7b2291e5b200ac8c7c3b92560405160405180910390a45050565b600081600001549050919050565b6000611e1a82611cd4565b611e59576040517f08c379a0000000000000000000000000000000000000000000000000000000008152600401611e509061349c565b60405180910390fd5b6000611e6483610c22565b90508073ffffffffffffffffffffffffffffffffffffffff168473ffffffffffffffffffffffffffffffffffffffff161480611ed357508373ffffffffffffffffffffffffffffffffffffffff16611ebb84610783565b73ffffffffffffffffffffffffffffffffffffffff16145b80611ee45750611ee38185611ade565b5b91505092915050565b8273ffffffffffffffffffffffffffffffffffffffff16611f0d82610c22565b73ffffffffffffffffffffffffffffffffffffffff1614611f63576040517f08c379a0000000000000000000000000000000000000000000000000000000008152600401611f5a9061363c565b60405180910390fd5b600073ffffffffffffffffffffffffffffffffffffffff168273ffffffffffffffffffffffffffffffffffffffff161415611fd3576040517f08c379a0000000000000000000000000000000000000000000000000000000008152600401611fca9061345c565b60405180910390fd5b611fde83838361257f565b611fe9600082611d48565b6001600460008573ffffffffffffffffffffffffffffffffffffffff1673ffffffffffffffffffffffffffffffffffffffff168152602001908152602001600020600082825461203991906138bb565b925050819055506001600460008473ffffffffffffffffffffffffffffffffffffffff1673ffffffffffffffffffffffffffffffffffffffff168152602001908152602001600020600082825461209091906137da565b92505081905550816003600083815260200190815260200160002060006101000a81548173ffffffffffffffffffffffffffffffffffffffff021916908373ffffffffffffffffffffffffffffffffffffffff160217905550808273ffffffffffffffffffffffffffffffffffffffff168473ffffffffffffffffffffffffffffffffffffffff167fddf252ad1be2c89b69c2b068fc378daa952ba7f163c4a11628f55a4df523b3ef60405160405180910390a4505050565b60008060009054906101000a900473ffffffffffffffffffffffffffffffffffffffff169050816000806101000a81548173ffffffffffffffffffffffffffffffffffffffff021916908373ffffffffffffffffffffffffffffffffffffffff1602179055508173ffffffffffffffffffffffffffffffffffffffff168173ffffffffffffffffffffffffffffffffffffffff167f8be0079c531659141344cd1fd0a4f28419497f9722a3daafe3b4186f6b6457e060405160405180910390a35050565b6001816000016000828254019250508190555050565b600073ffffffffffffffffffffffffffffffffffffffff168273ffffffffffffffffffffffffffffffffffffffff161415612293576040517f08c379a000000000000000000000000000000000000000000000000000000000815260040161228a906135bc565b60405180910390fd5b61229c81611cd4565b156122dc576040517f08c379a00000000000000000000000000000000000000000000000000000000081526004016122d39061343c565b60405180910390fd5b6122e86000838361257f565b6001600460008473ffffffffffffffffffffffffffffffffffffffff1673ffffffffffffffffffffffffffffffffffffffff168152602001908152602001600020600082825461233891906137da565b92505081905550816003600083815260200190815260200160002060006101000a81548173ffffffffffffffffffffffffffffffffffffffff021916908373ffffffffffffffffffffffffffffffffffffffff160217905550808273ffffffffffffffffffffffffffffffffffffffff16600073ffffffffffffffffffffffffffffffffffffffff167fddf252ad1be2c89b69c2b068fc378daa952ba7f163c4a11628f55a4df523b3ef60405160405180910390a45050565b6123fa82611cd4565b612439576040517f08c379a00000000000000000000000000000000000000000000000000000000081526004016124309061355c565b60405180910390fd5b80600760008481526020019081526020016000209080519060200190612460929190612932565b505050565b612470848484611eed565b61247c84848484612584565b6124bb576040517f08c379a00000000000000000000000000000000000000000000000000000000081526004016124b2906133dc565b60405180910390fd5b50505050565b606060405180602001604052806000815250905090565b60606124e382611cd4565b612522576040517f08c379a00000000000000000000000000000000000000000000000000000000081526004016125199061365c565b60405180910390fd5b600061252c6124c1565b9050600081511161254c5760405180602001604052806000815250612577565b8061255684612753565b6040516020016125679291906132bb565b6040516020818303038152906040525b915050919050565b505050565b60006125a58473ffffffffffffffffffffffffffffffffffffffff1661291f565b15612746578373ffffffffffffffffffffffffffffffffffffffff1663150b7a026125ce611d40565b8786866040518563ffffffff167c010000000000000000000000000000000000000000000000000000000002815260040161260c9493929190613331565b602060405180830381600087803b15801561262657600080fd5b505af192505050801561265757506040513d601f19601f820116820180604052508101906126549190612d31565b60015b6126da573d8060008114612687576040519150601f19603f3d011682016040523d82523d6000602084013e61268c565b606091505b506000815114156126d2576040517f08c379a00000000000000000000000000000000000000000000000000000000081526004016126c9906133dc565b60405180910390fd5b805181602001fd5b63150b7a027c0100000000000000000000000000000000000000000000000000000000027bffffffffffffffffffffffffffffffffffffffffffffffffffffffff1916817bffffffffffffffffffffffffffffffffffffffffffffffffffffffff19161491505061274b565b600190505b949350505050565b6060600082141561279b576040518060400160405280600181526020017f3000000000000000000000000000000000000000000000000000000000000000815250905061291a565b600082905060005b600082146127cd5780806127b690613a08565b915050600a826127c69190613830565b91506127a3565b60008167ffffffffffffffff81111561280f577f4e487b7100000000000000000000000000000000000000000000000000000000600052604160045260246000fd5b6040519080825280601f01601f1916602001820160405280156128415781602001600182028036833780820191505090505b5090505b600085146129135760018261285a91906138bb565b9150600a856128699190613a51565b603061287591906137da565b7f0100000000000000000000000000000000000000000000000000000000000000028183815181106128d0577f4e487b7100000000000000000000000000000000000000000000000000000000600052603260045260246000fd5b60200101907effffffffffffffffffffffffffffffffffffffffffffffffffffffffffffff1916908160001a905350600a8561290c9190613830565b9450612845565b8093505050505b919050565b600080823b905060008111915050919050565b82805461293e906139a5565b90600052602060002090601f01602090048101928261296057600085556129a7565b82601f1061297957805160ff19168380011785556129a7565b828001600101855582156129a7579182015b828111156129a657825182559160200191906001019061298b565b5b5090506129b491906129b8565b5090565b5b808211156129d15760008160009055506001016129b9565b5090565b60006129e86129e3846136fc565b6136d7565b905082815260208101848484011115612a0057600080fd5b612a0b848285613963565b509392505050565b6000612a26612a218461372d565b6136d7565b905082815260208101848484011115612a3e57600080fd5b612a49848285613963565b509392505050565b600081359050612a6081614184565b92915050565b600081359050612a758161419b565b92915050565b600081519050612a8a8161419b565b92915050565b600081359050612a9f816141b2565b92915050565b600081519050612ab4816141b2565b92915050565b600082601f830112612acb57600080fd5b8135612adb8482602086016129d5565b91505092915050565b600082601f830112612af557600080fd5b8135612b05848260208601612a13565b91505092915050565b600081359050612b1d816141c9565b92915050565b600081519050612b32816141c9565b92915050565b600060208284031215612b4a57600080fd5b6000612b5884828501612a51565b91505092915050565b60008060408385031215612b7457600080fd5b6000612b8285828601612a51565b9250506020612b9385828601612a51565b9150509250929050565b600080600060608486031215612bb257600080fd5b6000612bc086828701612a51565b9350506020612bd186828701612a51565b9250506040612be286828701612b0e565b9150509250925092565b60008060008060808587031215612c0257600080fd5b6000612c1087828801612a51565b9450506020612c2187828801612a51565b9350506040612c3287828801612b0e565b925050606085013567ffffffffffffffff811115612c4f57600080fd5b612c5b87828801612aba565b91505092959194509250565b60008060408385031215612c7a57600080fd5b6000612c8885828601612a51565b9250506020612c9985828601612a66565b9150509250929050565b60008060408385031215612cb657600080fd5b6000612cc485828601612a51565b9250506020612cd585828601612b0e565b9150509250929050565b600060208284031215612cf157600080fd5b6000612cff84828501612a7b565b91505092915050565b600060208284031215612d1a57600080fd5b6000612d2884828501612a90565b91505092915050565b600060208284031215612d4357600080fd5b6000612d5184828501612aa5565b91505092915050565b600060208284031215612d6c57600080fd5b600082013567ffffffffffffffff811115612d8657600080fd5b612d9284828501612ae4565b91505092915050565b60008060408385031215612dae57600080fd5b600083013567ffffffffffffffff811115612dc857600080fd5b612dd485828601612ae4565b9250506020612de585828601612a51565b9150509250929050565b600060208284031215612e0157600080fd5b6000612e0f84828501612b0e565b91505092915050565b600060208284031215612e2a57600080fd5b6000612e3884828501612b23565b91505092915050565b6000612e4d838361329d565b60208301905092915050565b612e62816138ef565b82525050565b6000612e738261376e565b612e7d818561379c565b9350612e888361375e565b8060005b83811015612eb9578151612ea08882612e41565b9750612eab8361378f565b925050600181019050612e8c565b5085935050505092915050565b612ecf81613901565b82525050565b6000612ee082613779565b612eea81856137ad565b9350612efa818560208601613972565b612f0381613b3e565b840191505092915050565b6000612f1982613784565b612f2381856137be565b9350612f33818560208601613972565b612f3c81613b3e565b840191505092915050565b6000612f5282613784565b612f5c81856137cf565b9350612f6c818560208601613972565b80840191505092915050565b6000612f856032836137be565b9150612f9082613b4f565b604082019050919050565b6000612fa86026836137be565b9150612fb382613b9e565b604082019050919050565b6000612fcb6034836137be565b9150612fd682613bed565b604082019050919050565b6000612fee601c836137be565b9150612ff982613c3c565b602082019050919050565b60006130116024836137be565b915061301c82613c65565b604082019050919050565b60006130346019836137be565b915061303f82613cb4565b602082019050919050565b6000613057602c836137be565b915061306282613cdd565b604082019050919050565b600061307a6022836137be565b915061308582613d2c565b604082019050919050565b600061309d6038836137be565b91506130a882613d7b565b604082019050919050565b60006130c0602a836137be565b91506130cb82613dca565b604082019050919050565b60006130e36029836137be565b91506130ee82613e19565b604082019050919050565b60006131066023836137be565b915061311182613e68565b604082019050919050565b6000613129602e836137be565b915061313482613eb7565b604082019050919050565b600061314c6011836137be565b915061315782613f06565b602082019050919050565b600061316f601c836137be565b915061317a82613f2f565b602082019050919050565b60006131926020836137be565b915061319d82613f58565b602082019050919050565b60006131b56031836137be565b91506131c082613f81565b604082019050919050565b60006131d8602c836137be565b91506131e382613fd0565b604082019050919050565b60006131fb6020836137be565b91506132068261401f565b602082019050919050565b600061321e6029836137be565b915061322982614048565b604082019050919050565b6000613241602f836137be565b915061324c82614097565b604082019050919050565b60006132646021836137be565b915061326f826140e6565b604082019050919050565b60006132876031836137be565b915061329282614135565b604082019050919050565b6132a681613959565b82525050565b6132b581613959565b82525050565b60006132c78285612f47565b91506132d38284612f47565b91508190509392505050565b60006020820190506132f46000830184612e59565b92915050565b600060608201905061330f6000830186612e59565b61331c6020830185612e59565b61332960408301846132ac565b949350505050565b60006080820190506133466000830187612e59565b6133536020830186612e59565b61336060408301856132ac565b81810360608301526133728184612ed5565b905095945050505050565b600060208201905081810360008301526133978184612e68565b905092915050565b60006020820190506133b46000830184612ec6565b92915050565b600060208201905081810360008301526133d48184612f0e565b905092915050565b600060208201905081810360008301526133f581612f78565b9050919050565b6000602082019050818103600083015261341581612f9b565b9050919050565b6000602082019050818103600083015261343581612fbe565b9050919050565b6000602082019050818103600083015261345581612fe1565b9050919050565b6000602082019050818103600083015261347581613004565b9050919050565b6000602082019050818103600083015261349581613027565b9050919050565b600060208201905081810360008301526134b58161304a565b9050919050565b600060208201905081810360008301526134d58161306d565b9050919050565b600060208201905081810360008301526134f581613090565b9050919050565b60006020820190508181036000830152613515816130b3565b9050919050565b60006020820190508181036000830152613535816130d6565b9050919050565b60006020820190508181036000830152613555816130f9565b9050919050565b600060208201905081810360008301526135758161311c565b9050919050565b600060208201905081810360008301526135958161313f565b9050919050565b600060208201905081810360008301526135b581613162565b9050919050565b600060208201905081810360008301526135d581613185565b9050919050565b600060208201905081810360008301526135f5816131a8565b9050919050565b60006020820190508181036000830152613615816131cb565b9050919050565b60006020820190508181036000830152613635816131ee565b9050919050565b6000602082019050818103600083015261365581613211565b9050919050565b6000602082019050818103600083015261367581613234565b9050919050565b6000602082019050818103600083015261369581613257565b9050919050565b600060208201905081810360008301526136b58161327a565b9050919050565b60006020820190506136d160008301846132ac565b92915050565b60006136e16136f2565b90506136ed82826139d7565b919050565b6000604051905090565b600067ffffffffffffffff82111561371757613716613b0f565b5b61372082613b3e565b9050602081019050919050565b600067ffffffffffffffff82111561374857613747613b0f565b5b61375182613b3e565b9050602081019050919050565b6000819050602082019050919050565b600081519050919050565b600081519050919050565b600081519050919050565b6000602082019050919050565b600082825260208201905092915050565b600082825260208201905092915050565b600082825260208201905092915050565b600081905092915050565b60006137e582613959565b91506137f083613959565b9250827fffffffffffffffffffffffffffffffffffffffffffffffffffffffffffffffff0382111561382557613824613a82565b5b828201905092915050565b600061383b82613959565b915061384683613959565b92508261385657613855613ab1565b5b828204905092915050565b600061386c82613959565b915061387783613959565b9250817fffffffffffffffffffffffffffffffffffffffffffffffffffffffffffffffff04831182151516156138b0576138af613a82565b5b828202905092915050565b60006138c682613959565b91506138d183613959565b9250828210156138e4576138e3613a82565b5b828203905092915050565b60006138fa82613939565b9050919050565b60008115159050919050565b60007fffffffff0000000000000000000000000000000000000000000000000000000082169050919050565b600073ffffffffffffffffffffffffffffffffffffffff82169050919050565b6000819050919050565b82818337600083830152505050565b60005b83811015613990578082015181840152602081019050613975565b8381111561399f576000848401525b50505050565b600060028204905060018216806139bd57607f821691505b602082108114156139d1576139d0613ae0565b5b50919050565b6139e082613b3e565b810181811067ffffffffffffffff821117156139ff576139fe613b0f565b5b80604052505050565b6000613a1382613959565b91507fffffffffffffffffffffffffffffffffffffffffffffffffffffffffffffffff821415613a4657613a45613a82565b5b600182019050919050565b6000613a5c82613959565b9150613a6783613959565b925082613a7757613a76613ab1565b5b828206905092915050565b7f4e487b7100000000000000000000000000000000000000000000000000000000600052601160045260246000fd5b7f4e487b7100000000000000000000000000000000000000000000000000000000600052601260045260246000fd5b7f4e487b7100000000000000000000000000000000000000000000000000000000600052602260045260246000fd5b7f4e487b7100000000000000000000000000000000000000000000000000000000600052604160045260246000fd5b6000601f19601f8301169050919050565b7f4552433732313a207472616e7366657220746f206e6f6e20455243373231526560008201527f63656976657220696d706c656d656e7465720000000000000000000000000000602082015250565b7f4f776e61626c653a206e6577206f776e657220697320746865207a65726f206160008201527f6464726573730000000000000000000000000000000000000000000000000000602082015250565b7f42616c616e6365206f66204d696c6b20746f6b656e206973206e6f7420656e6f60008201527f7567687420746f2062757920426c696e64426f78000000000000000000000000602082015250565b7f4552433732313a20746f6b656e20616c7265616479206d696e74656400000000600082015250565b7f4552433732313a207472616e7366657220746f20746865207a65726f2061646460008201527f7265737300000000000000000000000000000000000000000000000000000000602082015250565b7f4552433732313a20617070726f766520746f2063616c6c657200000000000000600082015250565b7f4552433732313a206f70657261746f7220717565727920666f72206e6f6e657860008201527f697374656e7420746f6b656e0000000000000000000000000000000000000000602082015250565b7f4d696e7420416464726573732063616e2774206265207a65726f20616464726560008201527f7373000000000000000000000000000000000000000000000000000000000000602082015250565b7f4552433732313a20617070726f76652063616c6c6572206973206e6f74206f7760008201527f6e6572206e6f7220617070726f76656420666f7220616c6c0000000000000000602082015250565b7f4552433732313a2062616c616e636520717565727920666f7220746865207a6560008201527f726f206164647265737300000000000000000000000000000000000000000000602082015250565b7f4552433732313a206f776e657220717565727920666f72206e6f6e657869737460008201527f656e7420746f6b656e0000000000000000000000000000000000000000000000602082015250565b7f4f776e657220416464726573732063616e2774206265207a65726f206164647260008201527f6573730000000000000000000000000000000000000000000000000000000000602082015250565b7f45524337323155524953746f726167653a2055524920736574206f66206e6f6e60008201527f6578697374656e7420746f6b656e000000000000000000000000000000000000602082015250565b7f416c6c204e4654732061726520736f6c64000000000000000000000000000000600082015250565b7f426c696e64626f782053616c65206973206e6f74207374617274656400000000600082015250565b7f4552433732313a206d696e7420746f20746865207a65726f2061646472657373600082015250565b7f45524337323155524953746f726167653a2055524920717565727920666f722060008201527f6e6f6e6578697374656e7420746f6b656e000000000000000000000000000000602082015250565b7f4552433732313a20617070726f76656420717565727920666f72206e6f6e657860008201527f697374656e7420746f6b656e0000000000000000000000000000000000000000602082015250565b7f4f776e61626c653a2063616c6c6572206973206e6f7420746865206f776e6572600082015250565b7f4552433732313a207472616e73666572206f6620746f6b656e2074686174206960008201527f73206e6f74206f776e0000000000000000000000000000000000000000000000602082015250565b7f4552433732314d657461646174613a2055524920717565727920666f72206e6f60008201527f6e6578697374656e7420746f6b656e0000000000000000000000000000000000602082015250565b7f4552433732313a20617070726f76616c20746f2063757272656e74206f776e6560008201527f7200000000000000000000000000000000000000000000000000000000000000602082015250565b7f4552433732313a207472616e736665722063616c6c6572206973206e6f74206f60008201527f776e6572206e6f7220617070726f766564000000000000000000000000000000602082015250565b61418d816138ef565b811461419857600080fd5b50565b6141a481613901565b81146141af57600080fd5b50565b6141bb8161390d565b81146141c657600080fd5b50565b6141d281613959565b81146141dd57600080fd5b5056fea26469706673582212200355953b52c85a96c50d45331c5d9bc9f7703cb43f97b6223b3f729c577f1c8b64736f6c63430008040033",
  "immutableReferences": {},
  "source": "// SPDX-License-Identifier: MIT\r\npragma solidity ^0.8.4;\r\n\r\nimport \"@openzeppelin/contracts/access/Ownable.sol\";\r\nimport \"@openzeppelin/contracts/utils/Counters.sol\";\r\nimport \"@openzeppelin/contracts/token/ERC721/ERC721.sol\";\r\nimport \"@openzeppelin/contracts/token/ERC721/extensions/ERC721URIStorage.sol\";\r\nimport \"./interfaces/IMilkToken.sol\";\r\n\r\ncontract HappyCows is Ownable, ERC721URIStorage {\r\n    using Counters for Counters.Counter;\r\n    Counters.Counter private _tokenIds;\r\n\r\n    address private ownerAddr;\r\n    uint256 public blockNumber;\r\n    uint256 public price;\r\n    string public baseURI;\r\n\r\n    IMilkToken tokenMilk;\r\n\r\n    constructor(\r\n        uint256 _blockNumber,\r\n        IMilkToken _tokenMilk,\r\n        string memory _baseURI,\r\n        address _ownerAddr\r\n    ) ERC721(\"Happy Cows\", \"HCN\") {\r\n        blockNumber = _blockNumber;\r\n        tokenMilk = _tokenMilk;\r\n        baseURI = _baseURI;\r\n        price = 10000;\r\n        ownerAddr = _ownerAddr;\r\n    }\r\n\r\n    function buyBlindBox(string memory _metaHash, address contractAddress)\r\n        public\r\n        returns (uint256)\r\n    {\r\n        require(msg.sender != address(0), \"Mint Address can't be zero address\");\r\n        require(block.number >= blockNumber, \"Blindbox Sale is not started\");\r\n        require(_tokenIds.current() <= 1000, \"All NFTs are sold\");\r\n        require(\r\n            tokenMilk.balanceOf(msg.sender) >= price * 10**18,\r\n            \"Balance of Milk token is not enought to buy BlindBox\"\r\n        );\r\n\r\n        tokenMilk.transferFrom(msg.sender, ownerAddr, price * 10**18);\r\n\r\n        _tokenIds.increment();\r\n        uint256 newItemId = _tokenIds.current();\r\n\r\n        _mint(msg.sender, newItemId);\r\n        _setTokenURI(newItemId, _metaHash);\r\n\r\n        if (!isApprovedForAll(msg.sender, contractAddress)) {\r\n            setApprovalForAll(contractAddress, true);\r\n        }\r\n        return newItemId;\r\n    }\r\n\r\n    function setOwnerAddr(address _ownerAddr) public onlyOwner {\r\n        require(\r\n            _ownerAddr != address(0),\r\n            \"Owner Address can't be zero address\"\r\n        );\r\n        ownerAddr = _ownerAddr;\r\n    }\r\n\r\n    function getOwnerAddr() public view onlyOwner returns (address) {\r\n        return ownerAddr;\r\n    }\r\n\r\n    function setPrice(uint256 _price) public onlyOwner {\r\n        price = _price;\r\n    }\r\n\r\n    function setBlockNumber(uint256 _blockNumber) public onlyOwner {\r\n        blockNumber = _blockNumber;\r\n    }\r\n\r\n    function setBaseURI(string memory _baseURI) public onlyOwner {\r\n        baseURI = _baseURI;\r\n    }\r\n\r\n    function transfer(\r\n        address _from,\r\n        address _to,\r\n        uint256 _tokenId\r\n    ) external onlyOwner {\r\n        transferFrom(_from, _to, _tokenId);\r\n    }\r\n\r\n    function getBlockNumber() external view returns (uint256) {\r\n        return block.number;\r\n    }\r\n\r\n    function totalSupply() external view returns (uint256) {\r\n        return (_tokenIds.current());\r\n    }\r\n\r\n    function getTokenFullURI(uint256 tokenId)\r\n        external\r\n        view\r\n        returns (string memory)\r\n    {\r\n        string memory _baseURI = baseURI;\r\n        string memory _tokenURI = tokenURI(tokenId);\r\n\r\n        return string(abi.encodePacked(_baseURI, _tokenURI));\r\n    }\r\n\r\n    function getBaseURI() external view returns (string memory) {\r\n        string memory _baseURI = baseURI;\r\n        return _baseURI;\r\n    }\r\n\r\n    function fetchMyNfts() external view returns (uint256[] memory) {\r\n        uint256 tokenCount = 0;\r\n        uint256 _totalSupply = _tokenIds.current();\r\n        for (uint256 i = 0; i < _totalSupply; i++) {\r\n            if (ownerOf(i + 1) == msg.sender) {\r\n                tokenCount++;\r\n            }\r\n        }\r\n\r\n        uint256[] memory tokenIds = new uint256[](tokenCount);\r\n        uint256 currentIndex = 0;\r\n        for (uint256 i = 0; i < _totalSupply; i++) {\r\n            if (ownerOf(i + 1) == msg.sender) {\r\n                tokenIds[currentIndex] = i + 1;\r\n                currentIndex++;\r\n            }\r\n        }\r\n\r\n        return tokenIds;\r\n    }\r\n}\r\n",
  "sourcePath": "C:\\Users\\admin\\Documents\\nft-contracts\\contracts\\HappyCows.sol",
  "compiler": {
    "name": "solc",
    "version": "0.8.4+commit.c7e474f2.Emscripten.clang"
  },
  "schemaVersion": "3.4.3",
  "updatedAt": "2021-12-15T19:44:28.741Z",
  "networkType": "ethereum",
  "devdoc": {
    "kind": "dev",
    "methods": {
      "approve(address,uint256)": {
        "details": "See {IERC721-approve}."
      },
      "balanceOf(address)": {
        "details": "See {IERC721-balanceOf}."
      },
      "getApproved(uint256)": {
        "details": "See {IERC721-getApproved}."
      },
      "isApprovedForAll(address,address)": {
        "details": "See {IERC721-isApprovedForAll}."
      },
      "name()": {
        "details": "See {IERC721Metadata-name}."
      },
      "owner()": {
        "details": "Returns the address of the current owner."
      },
      "ownerOf(uint256)": {
        "details": "See {IERC721-ownerOf}."
      },
      "renounceOwnership()": {
        "details": "Leaves the contract without owner. It will not be possible to call `onlyOwner` functions anymore. Can only be called by the current owner. NOTE: Renouncing ownership will leave the contract without an owner, thereby removing any functionality that is only available to the owner."
      },
      "safeTransferFrom(address,address,uint256)": {
        "details": "See {IERC721-safeTransferFrom}."
      },
      "safeTransferFrom(address,address,uint256,bytes)": {
        "details": "See {IERC721-safeTransferFrom}."
      },
      "setApprovalForAll(address,bool)": {
        "details": "See {IERC721-setApprovalForAll}."
      },
      "supportsInterface(bytes4)": {
        "details": "See {IERC165-supportsInterface}."
      },
      "symbol()": {
        "details": "See {IERC721Metadata-symbol}."
      },
      "tokenURI(uint256)": {
        "details": "See {IERC721Metadata-tokenURI}."
      },
      "transferFrom(address,address,uint256)": {
        "details": "See {IERC721-transferFrom}."
      },
      "transferOwnership(address)": {
        "details": "Transfers ownership of the contract to a new account (`newOwner`). Can only be called by the current owner."
      }
    },
    "version": 1
  },
  "userdoc": {
    "kind": "user",
    "methods": {},
    "version": 1
  }
}