{
  "contractName": "Market",
  "abi": [
    {
      "inputs": [
        {
          "internalType": "contract IMilkToken",
          "name": "_tokenMilk",
          "type": "address"
        },
        {
          "internalType": "address",
          "name": "_ownerAddr",
          "type": "address"
        }
      ],
      "stateMutability": "nonpayable",
      "type": "constructor"
    },
    {
      "anonymous": false,
      "inputs": [
        {
          "indexed": true,
          "internalType": "uint256",
          "name": "itemId",
          "type": "uint256"
        },
        {
          "indexed": true,
          "internalType": "address",
          "name": "nftContract",
          "type": "address"
        },
        {
          "indexed": true,
          "internalType": "uint256",
          "name": "tokenId",
          "type": "uint256"
        },
        {
          "indexed": false,
          "internalType": "address",
          "name": "seller",
          "type": "address"
        },
        {
          "indexed": false,
          "internalType": "address",
          "name": "owner",
          "type": "address"
        },
        {
          "indexed": false,
          "internalType": "uint256",
          "name": "price",
          "type": "uint256"
        },
        {
          "indexed": false,
          "internalType": "uint256",
          "name": "listedTime",
          "type": "uint256"
        },
        {
          "indexed": false,
          "internalType": "bool",
          "name": "isSold",
          "type": "bool"
        }
      ],
      "name": "MarketItemCreated",
      "type": "event"
    },
    {
      "anonymous": false,
      "inputs": [
        {
          "indexed": true,
          "internalType": "address",
          "name": "previousOwner",
          "type": "address"
        },
        {
          "indexed": true,
          "internalType": "address",
          "name": "newOwner",
          "type": "address"
        }
      ],
      "name": "OwnershipTransferred",
      "type": "event"
    },
    {
      "inputs": [],
      "name": "feePercent",
      "outputs": [
        {
          "internalType": "uint8",
          "name": "",
          "type": "uint8"
        }
      ],
      "stateMutability": "view",
      "type": "function",
      "constant": true
    },
    {
      "inputs": [],
      "name": "owner",
      "outputs": [
        {
          "internalType": "address",
          "name": "",
          "type": "address"
        }
      ],
      "stateMutability": "view",
      "type": "function",
      "constant": true
    },
    {
      "inputs": [],
      "name": "renounceOwnership",
      "outputs": [],
      "stateMutability": "nonpayable",
      "type": "function"
    },
    {
      "inputs": [
        {
          "internalType": "address",
          "name": "newOwner",
          "type": "address"
        }
      ],
      "name": "transferOwnership",
      "outputs": [],
      "stateMutability": "nonpayable",
      "type": "function"
    },
    {
      "inputs": [
        {
          "internalType": "uint8",
          "name": "_feePercent",
          "type": "uint8"
        }
      ],
      "name": "setFeePercent",
      "outputs": [],
      "stateMutability": "nonpayable",
      "type": "function"
    },
    {
      "inputs": [
        {
          "internalType": "address",
          "name": "_ownerAddr",
          "type": "address"
        }
      ],
      "name": "setOwnerAddr",
      "outputs": [],
      "stateMutability": "nonpayable",
      "type": "function"
    },
    {
      "inputs": [],
      "name": "getOwnerAddr",
      "outputs": [
        {
          "internalType": "address",
          "name": "",
          "type": "address"
        }
      ],
      "stateMutability": "view",
      "type": "function",
      "constant": true
    },
    {
      "inputs": [
        {
          "internalType": "address",
          "name": "nftContract",
          "type": "address"
        },
        {
          "internalType": "uint256",
          "name": "tokenId",
          "type": "uint256"
        },
        {
          "internalType": "uint256",
          "name": "price",
          "type": "uint256"
        }
      ],
      "name": "createMarketItem",
      "outputs": [],
      "stateMutability": "nonpayable",
      "type": "function"
    },
    {
      "inputs": [
        {
          "internalType": "address",
          "name": "nftContract",
          "type": "address"
        },
        {
          "internalType": "uint256",
          "name": "itemId",
          "type": "uint256"
        }
      ],
      "name": "unlistMarketItem",
      "outputs": [],
      "stateMutability": "nonpayable",
      "type": "function"
    },
    {
      "inputs": [
        {
          "internalType": "address",
          "name": "nftContract",
          "type": "address"
        },
        {
          "internalType": "uint256",
          "name": "itemId",
          "type": "uint256"
        }
      ],
      "name": "createMarketSale",
      "outputs": [],
      "stateMutability": "nonpayable",
      "type": "function"
    },
    {
      "inputs": [],
      "name": "fetchMarketItems",
      "outputs": [
        {
          "components": [
            {
              "internalType": "uint256",
              "name": "itemId",
              "type": "uint256"
            },
            {
              "internalType": "address",
              "name": "nftContract",
              "type": "address"
            },
            {
              "internalType": "uint256",
              "name": "tokenId",
              "type": "uint256"
            },
            {
              "internalType": "address",
              "name": "seller",
              "type": "address"
            },
            {
              "internalType": "address",
              "name": "buyer",
              "type": "address"
            },
            {
              "internalType": "uint256",
              "name": "price",
              "type": "uint256"
            },
            {
              "internalType": "uint256",
              "name": "listedTime",
              "type": "uint256"
            },
            {
              "internalType": "bool",
              "name": "isSold",
              "type": "bool"
            }
          ],
          "internalType": "struct Market.MarketItem[]",
          "name": "",
          "type": "tuple[]"
        }
      ],
      "stateMutability": "view",
      "type": "function",
      "constant": true
    },
    {
      "inputs": [],
      "name": "fetchMyNFTs",
      "outputs": [
        {
          "components": [
            {
              "internalType": "uint256",
              "name": "itemId",
              "type": "uint256"
            },
            {
              "internalType": "address",
              "name": "nftContract",
              "type": "address"
            },
            {
              "internalType": "uint256",
              "name": "tokenId",
              "type": "uint256"
            },
            {
              "internalType": "address",
              "name": "seller",
              "type": "address"
            },
            {
              "internalType": "address",
              "name": "buyer",
              "type": "address"
            },
            {
              "internalType": "uint256",
              "name": "price",
              "type": "uint256"
            },
            {
              "internalType": "uint256",
              "name": "listedTime",
              "type": "uint256"
            },
            {
              "internalType": "bool",
              "name": "isSold",
              "type": "bool"
            }
          ],
          "internalType": "struct Market.MarketItem[]",
          "name": "",
          "type": "tuple[]"
        }
      ],
      "stateMutability": "view",
      "type": "function",
      "constant": true
    },
    {
      "inputs": [],
      "name": "fetchItemsCreated",
      "outputs": [
        {
          "components": [
            {
              "internalType": "uint256",
              "name": "itemId",
              "type": "uint256"
            },
            {
              "internalType": "address",
              "name": "nftContract",
              "type": "address"
            },
            {
              "internalType": "uint256",
              "name": "tokenId",
              "type": "uint256"
            },
            {
              "internalType": "address",
              "name": "seller",
              "type": "address"
            },
            {
              "internalType": "address",
              "name": "buyer",
              "type": "address"
            },
            {
              "internalType": "uint256",
              "name": "price",
              "type": "uint256"
            },
            {
              "internalType": "uint256",
              "name": "listedTime",
              "type": "uint256"
            },
            {
              "internalType": "bool",
              "name": "isSold",
              "type": "bool"
            }
          ],
          "internalType": "struct Market.MarketItem[]",
          "name": "",
          "type": "tuple[]"
        }
      ],
      "stateMutability": "view",
      "type": "function",
      "constant": true
    },
    {
      "inputs": [
        {
          "internalType": "uint256",
          "name": "_marketId",
          "type": "uint256"
        }
      ],
      "name": "fetchSellerOfMarketItem",
      "outputs": [
        {
          "internalType": "address",
          "name": "",
          "type": "address"
        }
      ],
      "stateMutability": "view",
      "type": "function",
      "constant": true
    },
    {
      "inputs": [
        {
          "internalType": "uint256",
          "name": "_marketId",
          "type": "uint256"
        }
      ],
      "name": "fetchPriceOfMarketItem",
      "outputs": [
        {
          "internalType": "uint256",
          "name": "",
          "type": "uint256"
        }
      ],
      "stateMutability": "view",
      "type": "function",
      "constant": true
    },
    {
      "inputs": [
        {
          "internalType": "uint256",
          "name": "_marketId",
          "type": "uint256"
        }
      ],
      "name": "fetchBuyerOfMarketItem",
      "outputs": [
        {
          "internalType": "address",
          "name": "",
          "type": "address"
        }
      ],
      "stateMutability": "view",
      "type": "function",
      "constant": true
    }
  ],
  "bytecode": "0x60806040523480156200001157600080fd5b506040516200323838038062003238833981810160405281019062000037919062000213565b6001600081905550620000716200005c62000117640100000000026401000000009004565b6200011f640100000000026401000000009004565b81600460006101000a81548173ffffffffffffffffffffffffffffffffffffffff021916908373ffffffffffffffffffffffffffffffffffffffff160217905550600a600560146101000a81548160ff021916908360ff16021790555080600560006101000a81548173ffffffffffffffffffffffffffffffffffffffff021916908373ffffffffffffffffffffffffffffffffffffffff1602179055505050620002d0565b600033905090565b6000600160009054906101000a900473ffffffffffffffffffffffffffffffffffffffff16905081600160006101000a81548173ffffffffffffffffffffffffffffffffffffffff021916908373ffffffffffffffffffffffffffffffffffffffff1602179055508173ffffffffffffffffffffffffffffffffffffffff168173ffffffffffffffffffffffffffffffffffffffff167f8be0079c531659141344cd1fd0a4f28419497f9722a3daafe3b4186f6b6457e060405160405180910390a35050565b600081519050620001f6816200029c565b92915050565b6000815190506200020d81620002b6565b92915050565b600080604083850312156200022757600080fd5b60006200023785828601620001fc565b92505060206200024a85828601620001e5565b9150509250929050565b600062000261826200027c565b9050919050565b6000620002758262000254565b9050919050565b600073ffffffffffffffffffffffffffffffffffffffff82169050919050565b620002a78162000254565b8114620002b357600080fd5b50565b620002c18162000268565b8114620002cd57600080fd5b50565b612f5880620002e06000396000f3fe608060405234801561001057600080fd5b506004361061011d576000357c010000000000000000000000000000000000000000000000000000000090048063a9e0c316116100b4578063e670472311610083578063e6704723146102a4578063f064c32e146102c2578063f2fde38b146102e0578063f4838176146102fc5761011d565b8063a9e0c31614610220578063c23b139e1461023c578063c919319314610258578063e074278d146102885761011d565b8063715018a6116100f0578063715018a6146101aa5780637fd6f15c146101b45780638da5cb5b146101d257806392198437146101f05761011d565b80630f08efe014610122578063202e37401461014057806358eb2df51461015e578063591b8f611461017a575b600080fd5b61012a610318565b6040516101379190612746565b60405180910390f35b610148610638565b6040516101559190612746565b60405180910390f35b61017860048036038101906101739190612265565b6109dd565b005b610194600480360381019061018f91906122dd565b610d2c565b6040516101a191906126a1565b60405180910390f35b6101b2610dcf565b005b6101bc610e57565b6040516101c99190612923565b60405180910390f35b6101da610e6a565b6040516101e791906126a1565b60405180910390f35b61020a600480360381019061020591906122dd565b610e94565b60405161021791906126a1565b60405180910390f35b61023a60048036038101906102359190612229565b610ed4565b005b61025660048036038101906102519190612229565b6112c8565b005b610272600480360381019061026d91906122dd565b611899565b60405161027f9190612908565b60405180910390f35b6102a2600480360381019061029d9190612200565b6118b9565b005b6102ac6119e9565b6040516102b991906126a1565b60405180910390f35b6102ca611a8f565b6040516102d79190612746565b60405180910390f35b6102fa60048036038101906102f59190612200565b611e34565b005b6103166004803603810190610311919061232f565b611f2c565b005b60606000610326600261201c565b90506000610334600361201c565b61033e600261201c565b6103489190612a69565b90506000808267ffffffffffffffff81111561038d577f4e487b7100000000000000000000000000000000000000000000000000000000600052604160045260246000fd5b6040519080825280602002602001820160405280156103c657816020015b6103b361210e565b8152602001906001900390816103ab5790505b50905060005b8481101561062d57600073ffffffffffffffffffffffffffffffffffffffff16600660006001846103fd9190612988565b815260200190815260200160002060040160009054906101000a900473ffffffffffffffffffffffffffffffffffffffff1673ffffffffffffffffffffffffffffffffffffffff16141561061a57600060018261045a9190612988565b905060006006600083815260200190815260200160002090508060405180610100016040529081600082015481526020016001820160009054906101000a900473ffffffffffffffffffffffffffffffffffffffff1673ffffffffffffffffffffffffffffffffffffffff1673ffffffffffffffffffffffffffffffffffffffff168152602001600282015481526020016003820160009054906101000a900473ffffffffffffffffffffffffffffffffffffffff1673ffffffffffffffffffffffffffffffffffffffff1673ffffffffffffffffffffffffffffffffffffffff1681526020016004820160009054906101000a900473ffffffffffffffffffffffffffffffffffffffff1673ffffffffffffffffffffffffffffffffffffffff1673ffffffffffffffffffffffffffffffffffffffff16815260200160058201548152602001600682015481526020016007820160009054906101000a900460ff1615151515815250508486815181106105fe577f4e487b7100000000000000000000000000000000000000000000000000000000600052603260045260246000fd5b6020026020010181905250848061061490612b26565b95505050505b808061062590612b26565b9150506103cc565b508094505050505090565b60606000610646600261201c565b905060008060005b838110156106ef573373ffffffffffffffffffffffffffffffffffffffff166006600060018461067e9190612988565b815260200190815260200160002060040160009054906101000a900473ffffffffffffffffffffffffffffffffffffffff1673ffffffffffffffffffffffffffffffffffffffff1614156106dc576001836106d99190612988565b92505b80806106e790612b26565b91505061064e565b5060008267ffffffffffffffff811115610732577f4e487b7100000000000000000000000000000000000000000000000000000000600052604160045260246000fd5b60405190808252806020026020018201604052801561076b57816020015b61075861210e565b8152602001906001900390816107505790505b50905060005b848110156109d2573373ffffffffffffffffffffffffffffffffffffffff16600660006001846107a19190612988565b815260200190815260200160002060040160009054906101000a900473ffffffffffffffffffffffffffffffffffffffff1673ffffffffffffffffffffffffffffffffffffffff1614156109bf5760006001826107fe9190612988565b905060006006600083815260200190815260200160002090508060405180610100016040529081600082015481526020016001820160009054906101000a900473ffffffffffffffffffffffffffffffffffffffff1673ffffffffffffffffffffffffffffffffffffffff1673ffffffffffffffffffffffffffffffffffffffff168152602001600282015481526020016003820160009054906101000a900473ffffffffffffffffffffffffffffffffffffffff1673ffffffffffffffffffffffffffffffffffffffff1673ffffffffffffffffffffffffffffffffffffffff1681526020016004820160009054906101000a900473ffffffffffffffffffffffffffffffffffffffff1673ffffffffffffffffffffffffffffffffffffffff1673ffffffffffffffffffffffffffffffffffffffff16815260200160058201548152602001600682015481526020016007820160009054906101000a900460ff1615151515815250508486815181106109a2577f4e487b7100000000000000000000000000000000000000000000000000000000600052603260045260246000fd5b60200260200101819052506001856109ba9190612988565b945050505b80806109ca90612b26565b915050610771565b508094505050505090565b60026000541415610a23576040517f08c379a0000000000000000000000000000000000000000000000000000000008152600401610a1a906128e8565b60405180910390fd5b600260008190555060008111610a6e576040517f08c379a0000000000000000000000000000000000000000000000000000000008152600401610a6590612808565b60405180910390fd5b610a78600261202a565b6000610a84600261201c565b90506040518061010001604052808281526020018573ffffffffffffffffffffffffffffffffffffffff1681526020018481526020013373ffffffffffffffffffffffffffffffffffffffff168152602001600073ffffffffffffffffffffffffffffffffffffffff16815260200183815260200142815260200160001515815250600660008381526020019081526020016000206000820151816000015560208201518160010160006101000a81548173ffffffffffffffffffffffffffffffffffffffff021916908373ffffffffffffffffffffffffffffffffffffffff1602179055506040820151816002015560608201518160030160006101000a81548173ffffffffffffffffffffffffffffffffffffffff021916908373ffffffffffffffffffffffffffffffffffffffff16021790555060808201518160040160006101000a81548173ffffffffffffffffffffffffffffffffffffffff021916908373ffffffffffffffffffffffffffffffffffffffff16021790555060a0820151816005015560c0820151816006015560e08201518160070160006101000a81548160ff0219169083151502179055509050508373ffffffffffffffffffffffffffffffffffffffff166323b872dd3330866040518463ffffffff167c0100000000000000000000000000000000000000000000000000000000028152600401610c92939291906126bc565b600060405180830381600087803b158015610cac57600080fd5b505af1158015610cc0573d6000803e3d6000fd5b50505050828473ffffffffffffffffffffffffffffffffffffffff16827fd0bb1eaea8ab6cd0c288f209757734c5e280d8f4e05f93b1db82da8db727875833600087426000604051610d169594939291906126f3565b60405180910390a4506001600081905550505050565b60006006600083815260200190815260200160002060070160009054906101000a900460ff16610d91576040517f08c379a0000000000000000000000000000000000000000000000000000000008152600401610d8890612828565b60405180910390fd5b6006600083815260200190815260200160002060040160009054906101000a900473ffffffffffffffffffffffffffffffffffffffff169050919050565b610dd7612040565b73ffffffffffffffffffffffffffffffffffffffff16610df5610e6a565b73ffffffffffffffffffffffffffffffffffffffff1614610e4b576040517f08c379a0000000000000000000000000000000000000000000000000000000008152600401610e4290612848565b60405180910390fd5b610e556000612048565b565b600560149054906101000a900460ff1681565b6000600160009054906101000a900473ffffffffffffffffffffffffffffffffffffffff16905090565b60006006600083815260200190815260200160002060030160009054906101000a900473ffffffffffffffffffffffffffffffffffffffff169050919050565b60026000541415610f1a576040517f08c379a0000000000000000000000000000000000000000000000000000000008152600401610f11906128e8565b60405180910390fd5b60026000819055506000600660008381526020019081526020016000206002015490506000821415610f81576040517f08c379a0000000000000000000000000000000000000000000000000000000008152600401610f78906127e8565b60405180910390fd5b6006600083815260200190815260200160002060030160009054906101000a900473ffffffffffffffffffffffffffffffffffffffff1673ffffffffffffffffffffffffffffffffffffffff163373ffffffffffffffffffffffffffffffffffffffff1614611025576040517f08c379a000000000000000000000000000000000000000000000000000000000815260040161101c906127c8565b60405180910390fd5b6006600083815260200190815260200160002060010160009054906101000a900473ffffffffffffffffffffffffffffffffffffffff1673ffffffffffffffffffffffffffffffffffffffff168373ffffffffffffffffffffffffffffffffffffffff16146110c9576040517f08c379a00000000000000000000000000000000000000000000000000000000081526004016110c0906128a8565b60405180910390fd5b600115156006600084815260200190815260200160002060070160009054906101000a900460ff161515141580156111635750600073ffffffffffffffffffffffffffffffffffffffff166006600084815260200190815260200160002060040160009054906101000a900473ffffffffffffffffffffffffffffffffffffffff1673ffffffffffffffffffffffffffffffffffffffff16145b6111a2576040517f08c379a0000000000000000000000000000000000000000000000000000000008152600401611199906128c8565b60405180910390fd5b8273ffffffffffffffffffffffffffffffffffffffff166323b872dd3033846040518463ffffffff167c01000000000000000000000000000000000000000000000000000000000281526004016111fb939291906126bc565b600060405180830381600087803b15801561121557600080fd5b505af1158015611229573d6000803e3d6000fd5b50505050336006600084815260200190815260200160002060040160006101000a81548173ffffffffffffffffffffffffffffffffffffffff021916908373ffffffffffffffffffffffffffffffffffffffff16021790555060016006600084815260200190815260200160002060070160006101000a81548160ff0219169083151502179055506112bb600361202a565b5060016000819055505050565b6002600054141561130e576040517f08c379a0000000000000000000000000000000000000000000000000000000008152600401611305906128e8565b60405180910390fd5b600260008190555060006006600083815260200190815260200160002060050154905060006006600084815260200190815260200160002060020154905081600460009054906101000a900473ffffffffffffffffffffffffffffffffffffffff1673ffffffffffffffffffffffffffffffffffffffff166370a08231336040518263ffffffff167c01000000000000000000000000000000000000000000000000000000000281526004016113c491906126a1565b60206040518083038186803b1580156113dc57600080fd5b505afa1580156113f0573d6000803e3d6000fd5b505050506040513d601f19601f820116820180604052508101906114149190612306565b1015611455576040517f08c379a000000000000000000000000000000000000000000000000000000000815260040161144c906127a8565b60405180910390fd5b6006600084815260200190815260200160002060030160009054906101000a900473ffffffffffffffffffffffffffffffffffffffff1673ffffffffffffffffffffffffffffffffffffffff163373ffffffffffffffffffffffffffffffffffffffff1614156114fa576040517f08c379a00000000000000000000000000000000000000000000000000000000081526004016114f190612868565b60405180910390fd5b600460009054906101000a900473ffffffffffffffffffffffffffffffffffffffff1673ffffffffffffffffffffffffffffffffffffffff166323b872dd336006600087815260200190815260200160002060030160009054906101000a900473ffffffffffffffffffffffffffffffffffffffff166064600560149054906101000a900460ff16606461158e9190612a9d565b60ff16670de0b6b3a7640000886115a59190612a0f565b6115af9190612a0f565b6115b991906129de565b6040518463ffffffff167c01000000000000000000000000000000000000000000000000000000000281526004016115f3939291906126bc565b602060405180830381600087803b15801561160d57600080fd5b505af1158015611621573d6000803e3d6000fd5b505050506040513d601f19601f8201168201806040525081019061164591906122b4565b50600460009054906101000a900473ffffffffffffffffffffffffffffffffffffffff1673ffffffffffffffffffffffffffffffffffffffff166323b872dd33600560009054906101000a900473ffffffffffffffffffffffffffffffffffffffff166064600560149054906101000a900460ff1660ff16670de0b6b3a7640000886116d19190612a0f565b6116db9190612a0f565b6116e591906129de565b6040518463ffffffff167c010000000000000000000000000000000000000000000000000000000002815260040161171f939291906126bc565b602060405180830381600087803b15801561173957600080fd5b505af115801561174d573d6000803e3d6000fd5b505050506040513d601f19601f8201168201806040525081019061177191906122b4565b508373ffffffffffffffffffffffffffffffffffffffff166323b872dd3033846040518463ffffffff167c01000000000000000000000000000000000000000000000000000000000281526004016117cb939291906126bc565b600060405180830381600087803b1580156117e557600080fd5b505af11580156117f9573d6000803e3d6000fd5b50505050336006600085815260200190815260200160002060040160006101000a81548173ffffffffffffffffffffffffffffffffffffffff021916908373ffffffffffffffffffffffffffffffffffffffff16021790555060016006600085815260200190815260200160002060070160006101000a81548160ff02191690831515021790555061188b600361202a565b505060016000819055505050565b600060066000838152602001908152602001600020600501549050919050565b6118c1612040565b73ffffffffffffffffffffffffffffffffffffffff166118df610e6a565b73ffffffffffffffffffffffffffffffffffffffff1614611935576040517f08c379a000000000000000000000000000000000000000000000000000000000815260040161192c90612848565b60405180910390fd5b600073ffffffffffffffffffffffffffffffffffffffff168173ffffffffffffffffffffffffffffffffffffffff1614156119a5576040517f08c379a000000000000000000000000000000000000000000000000000000000815260040161199c90612768565b60405180910390fd5b80600560006101000a81548173ffffffffffffffffffffffffffffffffffffffff021916908373ffffffffffffffffffffffffffffffffffffffff16021790555050565b60006119f3612040565b73ffffffffffffffffffffffffffffffffffffffff16611a11610e6a565b73ffffffffffffffffffffffffffffffffffffffff1614611a67576040517f08c379a0000000000000000000000000000000000000000000000000000000008152600401611a5e90612848565b60405180910390fd5b600560009054906101000a900473ffffffffffffffffffffffffffffffffffffffff16905090565b60606000611a9d600261201c565b905060008060005b83811015611b46573373ffffffffffffffffffffffffffffffffffffffff1660066000600184611ad59190612988565b815260200190815260200160002060030160009054906101000a900473ffffffffffffffffffffffffffffffffffffffff1673ffffffffffffffffffffffffffffffffffffffff161415611b3357600183611b309190612988565b92505b8080611b3e90612b26565b915050611aa5565b5060008267ffffffffffffffff811115611b89577f4e487b7100000000000000000000000000000000000000000000000000000000600052604160045260246000fd5b604051908082528060200260200182016040528015611bc257816020015b611baf61210e565b815260200190600190039081611ba75790505b50905060005b84811015611e29573373ffffffffffffffffffffffffffffffffffffffff1660066000600184611bf89190612988565b815260200190815260200160002060030160009054906101000a900473ffffffffffffffffffffffffffffffffffffffff1673ffffffffffffffffffffffffffffffffffffffff161415611e16576000600182611c559190612988565b905060006006600083815260200190815260200160002090508060405180610100016040529081600082015481526020016001820160009054906101000a900473ffffffffffffffffffffffffffffffffffffffff1673ffffffffffffffffffffffffffffffffffffffff1673ffffffffffffffffffffffffffffffffffffffff168152602001600282015481526020016003820160009054906101000a900473ffffffffffffffffffffffffffffffffffffffff1673ffffffffffffffffffffffffffffffffffffffff1673ffffffffffffffffffffffffffffffffffffffff1681526020016004820160009054906101000a900473ffffffffffffffffffffffffffffffffffffffff1673ffffffffffffffffffffffffffffffffffffffff1673ffffffffffffffffffffffffffffffffffffffff16815260200160058201548152602001600682015481526020016007820160009054906101000a900460ff161515151581525050848681518110611df9577f4e487b7100000000000000000000000000000000000000000000000000000000600052603260045260246000fd5b6020026020010181905250600185611e119190612988565b945050505b8080611e2190612b26565b915050611bc8565b508094505050505090565b611e3c612040565b73ffffffffffffffffffffffffffffffffffffffff16611e5a610e6a565b73ffffffffffffffffffffffffffffffffffffffff1614611eb0576040517f08c379a0000000000000000000000000000000000000000000000000000000008152600401611ea790612848565b60405180910390fd5b600073ffffffffffffffffffffffffffffffffffffffff168173ffffffffffffffffffffffffffffffffffffffff161415611f20576040517f08c379a0000000000000000000000000000000000000000000000000000000008152600401611f1790612788565b60405180910390fd5b611f2981612048565b50565b611f34612040565b73ffffffffffffffffffffffffffffffffffffffff16611f52610e6a565b73ffffffffffffffffffffffffffffffffffffffff1614611fa8576040517f08c379a0000000000000000000000000000000000000000000000000000000008152600401611f9f90612848565b60405180910390fd5b601e8160ff1611158015611fbf575060008160ff16115b611ffe576040517f08c379a0000000000000000000000000000000000000000000000000000000008152600401611ff590612888565b60405180910390fd5b80600560146101000a81548160ff021916908360ff16021790555050565b600081600001549050919050565b6001816000016000828254019250508190555050565b600033905090565b6000600160009054906101000a900473ffffffffffffffffffffffffffffffffffffffff16905081600160006101000a81548173ffffffffffffffffffffffffffffffffffffffff021916908373ffffffffffffffffffffffffffffffffffffffff1602179055508173ffffffffffffffffffffffffffffffffffffffff168173ffffffffffffffffffffffffffffffffffffffff167f8be0079c531659141344cd1fd0a4f28419497f9722a3daafe3b4186f6b6457e060405160405180910390a35050565b60405180610100016040528060008152602001600073ffffffffffffffffffffffffffffffffffffffff16815260200160008152602001600073ffffffffffffffffffffffffffffffffffffffff168152602001600073ffffffffffffffffffffffffffffffffffffffff16815260200160008152602001600081526020016000151581525090565b6000813590506121a681612ec6565b92915050565b6000815190506121bb81612edd565b92915050565b6000813590506121d081612ef4565b92915050565b6000815190506121e581612ef4565b92915050565b6000813590506121fa81612f0b565b92915050565b60006020828403121561221257600080fd5b600061222084828501612197565b91505092915050565b6000806040838503121561223c57600080fd5b600061224a85828601612197565b925050602061225b858286016121c1565b9150509250929050565b60008060006060848603121561227a57600080fd5b600061228886828701612197565b9350506020612299868287016121c1565b92505060406122aa868287016121c1565b9150509250925092565b6000602082840312156122c657600080fd5b60006122d4848285016121ac565b91505092915050565b6000602082840312156122ef57600080fd5b60006122fd848285016121c1565b91505092915050565b60006020828403121561231857600080fd5b6000612326848285016121d6565b91505092915050565b60006020828403121561234157600080fd5b600061234f848285016121eb565b91505092915050565b600061236483836125d2565b6101008301905092915050565b61237a81612ad1565b82525050565b61238981612ad1565b82525050565b600061239a8261294e565b6123a48185612966565b93506123af8361293e565b8060005b838110156123e05781516123c78882612358565b97506123d283612959565b9250506001810190506123b3565b5085935050505092915050565b6123f681612ae3565b82525050565b61240581612ae3565b82525050565b6000612418602783612977565b915061242382612bcd565b604082019050919050565b600061243b602683612977565b915061244682612c1c565b604082019050919050565b600061245e602383612977565b915061246982612c6b565b604082019050919050565b6000612481602a83612977565b915061248c82612cba565b604082019050919050565b60006124a4601a83612977565b91506124af82612d09565b602082019050919050565b60006124c7601383612977565b91506124d282612d32565b602082019050919050565b60006124ea601983612977565b91506124f582612d5b565b602082019050919050565b600061250d602083612977565b915061251882612d84565b602082019050919050565b6000612530601783612977565b915061253b82612dad565b602082019050919050565b6000612553603583612977565b915061255e82612dd6565b604082019050919050565b6000612576602483612977565b915061258182612e25565b604082019050919050565b6000612599601b83612977565b91506125a482612e74565b602082019050919050565b60006125bc601f83612977565b91506125c782612e9d565b602082019050919050565b610100820160008201516125e96000850182612674565b5060208201516125fc6020850182612371565b50604082015161260f6040850182612674565b5060608201516126226060850182612371565b5060808201516126356080850182612371565b5060a082015161264860a0850182612674565b5060c082015161265b60c0850182612674565b5060e082015161266e60e08501826123ed565b50505050565b61267d81612b0f565b82525050565b61268c81612b0f565b82525050565b61269b81612b19565b82525050565b60006020820190506126b66000830184612380565b92915050565b60006060820190506126d16000830186612380565b6126de6020830185612380565b6126eb6040830184612683565b949350505050565b600060a0820190506127086000830188612380565b6127156020830187612380565b6127226040830186612683565b61272f6060830185612683565b61273c60808301846123fc565b9695505050505050565b60006020820190508181036000830152612760818461238f565b905092915050565b600060208201905081810360008301526127818161240b565b9050919050565b600060208201905081810360008301526127a18161242e565b9050919050565b600060208201905081810360008301526127c181612451565b9050919050565b600060208201905081810360008301526127e181612474565b9050919050565b6000602082019050818103600083015261280181612497565b9050919050565b60006020820190508181036000830152612821816124ba565b9050919050565b60006020820190508181036000830152612841816124dd565b9050919050565b6000602082019050818103600083015261286181612500565b9050919050565b6000602082019050818103600083015261288181612523565b9050919050565b600060208201905081810360008301526128a181612546565b9050919050565b600060208201905081810360008301526128c181612569565b9050919050565b600060208201905081810360008301526128e18161258c565b9050919050565b60006020820190508181036000830152612901816125af565b9050919050565b600060208201905061291d6000830184612683565b92915050565b60006020820190506129386000830184612692565b92915050565b6000819050602082019050919050565b600081519050919050565b6000602082019050919050565b600082825260208201905092915050565b600082825260208201905092915050565b600061299382612b0f565b915061299e83612b0f565b9250827fffffffffffffffffffffffffffffffffffffffffffffffffffffffffffffffff038211156129d3576129d2612b6f565b5b828201905092915050565b60006129e982612b0f565b91506129f483612b0f565b925082612a0457612a03612b9e565b5b828204905092915050565b6000612a1a82612b0f565b9150612a2583612b0f565b9250817fffffffffffffffffffffffffffffffffffffffffffffffffffffffffffffffff0483118215151615612a5e57612a5d612b6f565b5b828202905092915050565b6000612a7482612b0f565b9150612a7f83612b0f565b925082821015612a9257612a91612b6f565b5b828203905092915050565b6000612aa882612b19565b9150612ab383612b19565b925082821015612ac657612ac5612b6f565b5b828203905092915050565b6000612adc82612aef565b9050919050565b60008115159050919050565b600073ffffffffffffffffffffffffffffffffffffffff82169050919050565b6000819050919050565b600060ff82169050919050565b6000612b3182612b0f565b91507fffffffffffffffffffffffffffffffffffffffffffffffffffffffffffffffff821415612b6457612b63612b6f565b5b600182019050919050565b7f4e487b7100000000000000000000000000000000000000000000000000000000600052601160045260246000fd5b7f4e487b7100000000000000000000000000000000000000000000000000000000600052601260045260246000fd5b7f5a65726f20416464726573732063616e277420626520746865206f776e65722060008201527f6164647265737300000000000000000000000000000000000000000000000000602082015250565b7f4f776e61626c653a206e6577206f776e657220697320746865207a65726f206160008201527f6464726573730000000000000000000000000000000000000000000000000000602082015250565b7f42616c616e6365206f66206275796572206973206c657373207468616e20707260008201527f6963650000000000000000000000000000000000000000000000000000000000602082015250565b7f54686973206163636f756e74206973206e6f742073656c6c6572206f66206d6160008201527f726b6574206974656d2100000000000000000000000000000000000000000000602082015250565b7f4974656d2049642063616e2774206e6f74206265207a65726f21000000000000600082015250565b7f50726963652063616e2774206265207a65726f00000000000000000000000000600082015250565b7f54686973204974656d206973206e6f7420736f6c642079657400000000000000600082015250565b7f4f776e61626c653a2063616c6c6572206973206e6f7420746865206f776e6572600082015250565b7f557365722063616e27742062757920686973204e465421000000000000000000600082015250565b7f50657263656e74206f6620466565206d757374206265206c657373207468616e60008201527f20333025206f722063616e2774206265207a65726f0000000000000000000000602082015250565b7f54686973204e4654206973206e6f742061737369676e65642077697468204d6160008201527f726b657400000000000000000000000000000000000000000000000000000000602082015250565b7f54686973206974656d2077617320736f6c6420616c7265616479210000000000600082015250565b7f5265656e7472616e637947756172643a207265656e7472616e742063616c6c00600082015250565b612ecf81612ad1565b8114612eda57600080fd5b50565b612ee681612ae3565b8114612ef157600080fd5b50565b612efd81612b0f565b8114612f0857600080fd5b50565b612f1481612b19565b8114612f1f57600080fd5b5056fea26469706673582212204f899ce2ec387be197de067dc266efc6c65c2542016d8b99c81a52a8a72b7b6b64736f6c63430008040033",
  "immutableReferences": {},
  "source": "// SPDX-License-Identifier: MIT\r\npragma solidity ^0.8.4;\r\nimport \"@openzeppelin/contracts/utils/Counters.sol\";\r\nimport \"@openzeppelin/contracts/token/ERC721/ERC721.sol\";\r\nimport \"@openzeppelin/contracts/security/ReentrancyGuard.sol\";\r\nimport \"@openzeppelin/contracts/access/Ownable.sol\";\r\nimport \"./interfaces/IMilkToken.sol\";\r\n\r\ncontract Market is ReentrancyGuard, Ownable {\r\n    using Counters for Counters.Counter;\r\n    Counters.Counter private _itemIds;\r\n    Counters.Counter private _itemSold;\r\n\r\n    IMilkToken tokenMilk;\r\n\r\n    address private ownerAddr;\r\n\r\n    struct MarketItem {\r\n        uint256 itemId;\r\n        address nftContract;\r\n        uint256 tokenId;\r\n        address seller;\r\n        address buyer;\r\n        uint256 price;\r\n        uint256 listedTime;\r\n        bool isSold;\r\n    }\r\n\r\n    uint8 public feePercent;\r\n\r\n    mapping(uint256 => MarketItem) private idToMarketItem;\r\n\r\n    event MarketItemCreated(\r\n        uint256 indexed itemId,\r\n        address indexed nftContract,\r\n        uint256 indexed tokenId,\r\n        address seller,\r\n        address owner,\r\n        uint256 price,\r\n        uint256 listedTime,\r\n        bool isSold\r\n    );\r\n\r\n    constructor(IMilkToken _tokenMilk, address _ownerAddr) {\r\n        tokenMilk = _tokenMilk;\r\n        feePercent = 10;\r\n        ownerAddr = _ownerAddr;\r\n    }\r\n\r\n    function setFeePercent(uint8 _feePercent) public onlyOwner {\r\n        require(\r\n            _feePercent <= 30 && _feePercent > 0,\r\n            \"Percent of Fee must be less than 30% or can't be zero\"\r\n        );\r\n        feePercent = _feePercent;\r\n    }\r\n\r\n    function setOwnerAddr(address _ownerAddr) public onlyOwner {\r\n        require(\r\n            _ownerAddr != address(0),\r\n            \"Zero Address can't be the owner address\"\r\n        );\r\n        ownerAddr = _ownerAddr;\r\n    }\r\n\r\n    function getOwnerAddr() public view onlyOwner returns (address) {\r\n        return ownerAddr;\r\n    }\r\n\r\n    function createMarketItem(\r\n        address nftContract,\r\n        uint256 tokenId,\r\n        uint256 price\r\n    ) public nonReentrant {\r\n        require(price > 0, \"Price can't be zero\");\r\n\r\n        _itemIds.increment();\r\n        uint256 itemId = _itemIds.current();\r\n\r\n        idToMarketItem[itemId] = MarketItem(\r\n            itemId,\r\n            nftContract,\r\n            tokenId,\r\n            msg.sender,\r\n            address(0),\r\n            price,\r\n            block.timestamp,\r\n            false\r\n        );\r\n\r\n        IERC721(nftContract).transferFrom(msg.sender, address(this), tokenId);\r\n\r\n        emit MarketItemCreated(\r\n            itemId,\r\n            nftContract,\r\n            tokenId,\r\n            msg.sender,\r\n            address(0),\r\n            price,\r\n            block.timestamp,\r\n            false\r\n        );\r\n    }\r\n\r\n    function unlistMarketItem(address nftContract, uint256 itemId)\r\n        public\r\n        nonReentrant\r\n    {\r\n        uint256 tokenId = idToMarketItem[itemId].tokenId;\r\n\r\n        require(itemId != 0, \"Item Id can't not be zero!\");\r\n\r\n        require(\r\n            msg.sender == idToMarketItem[itemId].seller,\r\n            \"This account is not seller of market item!\"\r\n        );\r\n\r\n        require(\r\n            nftContract == idToMarketItem[itemId].nftContract,\r\n            \"This NFT is not assigned with Market\"\r\n        );\r\n\r\n        require(\r\n            idToMarketItem[itemId].isSold != true &&\r\n                idToMarketItem[itemId].buyer == address(0),\r\n            \"This item was sold already!\"\r\n        );\r\n\r\n        IERC721(nftContract).transferFrom(address(this), msg.sender, tokenId);\r\n        idToMarketItem[itemId].buyer = msg.sender;\r\n        idToMarketItem[itemId].isSold = true;\r\n        _itemSold.increment();\r\n    }\r\n\r\n    function createMarketSale(address nftContract, uint256 itemId)\r\n        public\r\n        nonReentrant\r\n    {\r\n        uint256 price = idToMarketItem[itemId].price;\r\n        uint256 tokenId = idToMarketItem[itemId].tokenId;\r\n\r\n        require(\r\n            tokenMilk.balanceOf(msg.sender) >= price,\r\n            \"Balance of buyer is less than price\"\r\n        );\r\n\r\n        require(\r\n            msg.sender != idToMarketItem[itemId].seller,\r\n            \"User can't buy his NFT!\"\r\n        );\r\n\r\n        tokenMilk.transferFrom(\r\n            msg.sender,\r\n            idToMarketItem[itemId].seller,\r\n            (price * 10**18 * (100 - feePercent)) / 100\r\n        );\r\n\r\n        tokenMilk.transferFrom(\r\n            msg.sender,\r\n            ownerAddr,\r\n            (price * 10**18 * feePercent) / 100\r\n        );\r\n\r\n        IERC721(nftContract).transferFrom(address(this), msg.sender, tokenId);\r\n        idToMarketItem[itemId].buyer = msg.sender;\r\n        idToMarketItem[itemId].isSold = true;\r\n        _itemSold.increment();\r\n    }\r\n\r\n    function fetchMarketItems() public view returns (MarketItem[] memory) {\r\n        uint256 itemCount = _itemIds.current();\r\n        uint256 unsoldItemCount = _itemIds.current() - _itemSold.current();\r\n        uint256 currentIndex = 0;\r\n\r\n        MarketItem[] memory items = new MarketItem[](unsoldItemCount);\r\n\r\n        for (uint256 i = 0; i < itemCount; i++) {\r\n            if (idToMarketItem[i + 1].buyer == address(0)) {\r\n                uint256 currentId = i + 1;\r\n                MarketItem storage currentItem = idToMarketItem[currentId];\r\n                items[currentIndex] = currentItem;\r\n                currentIndex++;\r\n            }\r\n        }\r\n\r\n        return items;\r\n    }\r\n\r\n    function fetchMyNFTs() public view returns (MarketItem[] memory) {\r\n        uint256 totalItemCount = _itemIds.current();\r\n        uint256 itemCount = 0;\r\n        uint256 currentIndex = 0;\r\n\r\n        for (uint256 i = 0; i < totalItemCount; i++) {\r\n            if (idToMarketItem[i + 1].buyer == msg.sender) {\r\n                itemCount += 1;\r\n            }\r\n        }\r\n\r\n        MarketItem[] memory items = new MarketItem[](itemCount);\r\n\r\n        for (uint256 i = 0; i < totalItemCount; i++) {\r\n            if (idToMarketItem[i + 1].buyer == msg.sender) {\r\n                uint256 currentId = i + 1;\r\n                MarketItem storage currentItem = idToMarketItem[currentId];\r\n                items[currentIndex] = currentItem;\r\n                currentIndex += 1;\r\n            }\r\n        }\r\n\r\n        return items;\r\n    }\r\n\r\n    function fetchItemsCreated() public view returns (MarketItem[] memory) {\r\n        uint256 totalItemCount = _itemIds.current();\r\n        uint256 itemCount = 0;\r\n        uint256 currentIndex = 0;\r\n\r\n        for (uint256 i = 0; i < totalItemCount; i++) {\r\n            if (idToMarketItem[i + 1].seller == msg.sender) {\r\n                itemCount += 1;\r\n            }\r\n        }\r\n\r\n        MarketItem[] memory items = new MarketItem[](itemCount);\r\n\r\n        for (uint256 i = 0; i < totalItemCount; i++) {\r\n            if (idToMarketItem[i + 1].seller == msg.sender) {\r\n                uint256 currentId = i + 1;\r\n                MarketItem storage currentItem = idToMarketItem[currentId];\r\n                items[currentIndex] = currentItem;\r\n                currentIndex += 1;\r\n            }\r\n        }\r\n\r\n        return items;\r\n    }\r\n\r\n    function fetchSellerOfMarketItem(uint256 _marketId)\r\n        public\r\n        view\r\n        returns (address)\r\n    {\r\n        return idToMarketItem[_marketId].seller;\r\n    }\r\n\r\n    function fetchPriceOfMarketItem(uint256 _marketId)\r\n        public\r\n        view\r\n        returns (uint256)\r\n    {\r\n        return idToMarketItem[_marketId].price;\r\n    }\r\n\r\n    function fetchBuyerOfMarketItem(uint256 _marketId)\r\n        public\r\n        view\r\n        returns (address)\r\n    {\r\n        require(idToMarketItem[_marketId].isSold, \"This Item is not sold yet\");\r\n\r\n        return idToMarketItem[_marketId].buyer;\r\n    }\r\n}\r\n",
  "sourcePath": "C:\\Users\\admin\\Documents\\nft-contracts\\contracts\\Market.sol",
  "compiler": {
    "name": "solc",
    "version": "0.8.4+commit.c7e474f2.Emscripten.clang"
  },
  "schemaVersion": "3.4.3",
  "updatedAt": "2021-12-15T19:45:55.279Z",
  "networkType": "ethereum",
  "devdoc": {
    "kind": "dev",
    "methods": {
      "owner()": {
        "details": "Returns the address of the current owner."
      },
      "renounceOwnership()": {
        "details": "Leaves the contract without owner. It will not be possible to call `onlyOwner` functions anymore. Can only be called by the current owner. NOTE: Renouncing ownership will leave the contract without an owner, thereby removing any functionality that is only available to the owner."
      },
      "transferOwnership(address)": {
        "details": "Transfers ownership of the contract to a new account (`newOwner`). Can only be called by the current owner."
      }
    },
    "version": 1
  },
  "userdoc": {
    "kind": "user",
    "methods": {},
    "version": 1
  }
}